{
  "_format": "hh-sol-artifact-1",
  "contractName": "EverydayAvatar",
  "sourceName": "contracts/EverydayAvatar.sol",
  "abi": [
    {
      "inputs": [
        {
          "internalType": "address",
          "name": "dataContract",
          "type": "address"
        }
      ],
      "stateMutability": "nonpayable",
      "type": "constructor"
    },
    {
      "inputs": [],
      "name": "AttributeArraysMismatch",
      "type": "error"
    },
    {
      "inputs": [
        {
          "internalType": "uint256",
          "name": "length",
          "type": "uint256"
        }
      ],
      "name": "BadArrayLength",
      "type": "error"
    },
    {
      "inputs": [
        {
          "internalType": "uint256",
          "name": "attributeId",
          "type": "uint256"
        }
      ],
      "name": "DuplicateAttributes",
      "type": "error"
    },
    {
      "inputs": [
        {
          "internalType": "uint256",
          "name": "requiredAmount",
          "type": "uint256"
        }
      ],
      "name": "InsufficientPayment",
      "type": "error"
    },
    {
      "inputs": [
        {
          "internalType": "uint256",
          "name": "attributeId",
          "type": "uint256"
        },
        {
          "internalType": "uint256",
          "name": "attributeValue",
          "type": "uint256"
        }
      ],
      "name": "InvalidAttributeValue",
      "type": "error"
    },
    {
      "inputs": [],
      "name": "UnauthorizedOperator",
      "type": "error"
    },
    {
      "anonymous": false,
      "inputs": [
        {
          "indexed": true,
          "internalType": "address",
          "name": "owner",
          "type": "address"
        },
        {
          "indexed": true,
          "internalType": "address",
          "name": "approved",
          "type": "address"
        },
        {
          "indexed": true,
          "internalType": "uint256",
          "name": "tokenId",
          "type": "uint256"
        }
      ],
      "name": "Approval",
      "type": "event"
    },
    {
      "anonymous": false,
      "inputs": [
        {
          "indexed": true,
          "internalType": "address",
          "name": "owner",
          "type": "address"
        },
        {
          "indexed": true,
          "internalType": "address",
          "name": "operator",
          "type": "address"
        },
        {
          "indexed": false,
          "internalType": "bool",
          "name": "approved",
          "type": "bool"
        }
      ],
      "name": "ApprovalForAll",
      "type": "event"
    },
    {
      "anonymous": false,
      "inputs": [
        {
          "indexed": true,
          "internalType": "uint256",
          "name": "attrId",
          "type": "uint256"
        },
        {
          "indexed": false,
          "internalType": "string",
          "name": "name",
          "type": "string"
        },
        {
          "indexed": false,
          "internalType": "string",
          "name": "symbol",
          "type": "string"
        },
        {
          "indexed": false,
          "internalType": "string",
          "name": "uri",
          "type": "string"
        }
      ],
      "name": "AttributeCreated",
      "type": "event"
    },
    {
      "anonymous": false,
      "inputs": [
        {
          "indexed": true,
          "internalType": "bytes32",
          "name": "id",
          "type": "bytes32"
        }
      ],
      "name": "ChainlinkCancelled",
      "type": "event"
    },
    {
      "anonymous": false,
      "inputs": [
        {
          "indexed": true,
          "internalType": "bytes32",
          "name": "id",
          "type": "bytes32"
        }
      ],
      "name": "ChainlinkFulfilled",
      "type": "event"
    },
    {
      "anonymous": false,
      "inputs": [
        {
          "indexed": true,
          "internalType": "bytes32",
          "name": "id",
          "type": "bytes32"
        }
      ],
      "name": "ChainlinkRequested",
      "type": "event"
    },
    {
      "anonymous": false,
      "inputs": [
        {
          "indexed": true,
          "internalType": "address",
          "name": "previousOwner",
          "type": "address"
        },
        {
          "indexed": true,
          "internalType": "address",
          "name": "newOwner",
          "type": "address"
        }
      ],
      "name": "OwnershipTransferred",
      "type": "event"
    },
    {
      "anonymous": false,
      "inputs": [
        {
          "indexed": true,
          "internalType": "bytes32",
          "name": "requestId",
          "type": "bytes32"
        },
        {
          "indexed": true,
          "internalType": "bytes",
          "name": "data",
          "type": "bytes"
        },
        {
          "indexed": true,
          "internalType": "uint256",
          "name": "tokenId",
          "type": "uint256"
        }
      ],
      "name": "RequestFulfilled",
      "type": "event"
    },
    {
      "anonymous": false,
      "inputs": [
        {
          "indexed": true,
          "internalType": "address",
          "name": "from",
          "type": "address"
        },
        {
          "indexed": true,
          "internalType": "address",
          "name": "to",
          "type": "address"
        },
        {
          "indexed": true,
          "internalType": "uint256",
          "name": "tokenId",
          "type": "uint256"
        }
      ],
      "name": "Transfer",
      "type": "event"
    },
    {
      "anonymous": false,
      "inputs": [
        {
          "indexed": true,
          "internalType": "address",
          "name": "operator",
          "type": "address"
        },
        {
          "indexed": false,
          "internalType": "uint256",
          "name": "from",
          "type": "uint256"
        },
        {
          "indexed": false,
          "internalType": "uint256",
          "name": "to",
          "type": "uint256"
        },
        {
          "indexed": true,
          "internalType": "uint256[]",
          "name": "attrIds",
          "type": "uint256[]"
        },
        {
          "indexed": false,
          "internalType": "uint256[]",
          "name": "values",
          "type": "uint256[]"
        }
      ],
      "name": "TransferBatch",
      "type": "event"
    },
    {
      "anonymous": false,
      "inputs": [
        {
          "indexed": true,
          "internalType": "address",
          "name": "operator",
          "type": "address"
        },
        {
          "indexed": false,
          "internalType": "uint256",
          "name": "from",
          "type": "uint256"
        },
        {
          "indexed": false,
          "internalType": "uint256",
          "name": "to",
          "type": "uint256"
        },
        {
          "indexed": true,
          "internalType": "uint256",
          "name": "attrId",
          "type": "uint256"
        },
        {
          "indexed": false,
          "internalType": "uint256",
          "name": "value",
          "type": "uint256"
        }
      ],
      "name": "TransferSingle",
      "type": "event"
    },
    {
      "inputs": [
        {
          "internalType": "address",
          "name": "to",
          "type": "address"
        },
        {
          "internalType": "uint256",
          "name": "tokenId",
          "type": "uint256"
        }
      ],
      "name": "approve",
      "outputs": [],
      "stateMutability": "nonpayable",
      "type": "function"
    },
    {
      "inputs": [
        {
          "internalType": "uint256",
          "name": "tokenId",
          "type": "uint256"
        },
        {
          "internalType": "uint256",
          "name": "attrId",
          "type": "uint256"
        },
        {
          "internalType": "uint256",
          "name": "amount",
          "type": "uint256"
        }
      ],
      "name": "attach",
      "outputs": [],
      "stateMutability": "nonpayable",
      "type": "function"
    },
    {
      "inputs": [
        {
          "internalType": "uint256",
          "name": "",
          "type": "uint256"
        },
        {
          "internalType": "uint256",
          "name": "",
          "type": "uint256"
        }
      ],
      "name": "attrBalances",
      "outputs": [
        {
          "internalType": "uint256",
          "name": "",
          "type": "uint256"
        }
      ],
      "stateMutability": "view",
      "type": "function"
    },
    {
      "inputs": [
        {
          "internalType": "uint256",
          "name": "attrId",
          "type": "uint256"
        }
      ],
      "name": "attrURI",
      "outputs": [
        {
          "internalType": "string",
          "name": "",
          "type": "string"
        }
      ],
      "stateMutability": "view",
      "type": "function"
    },
    {
      "inputs": [
        {
          "internalType": "uint256",
          "name": "tokenId",
          "type": "uint256"
        }
      ],
      "name": "attributesOf",
      "outputs": [
        {
          "internalType": "uint256[]",
          "name": "",
          "type": "uint256[]"
        }
      ],
      "stateMutability": "view",
      "type": "function"
    },
    {
      "inputs": [
        {
          "internalType": "uint256",
          "name": "",
          "type": "uint256"
        },
        {
          "internalType": "uint256",
          "name": "",
          "type": "uint256"
        }
      ],
      "name": "attrs",
      "outputs": [
        {
          "internalType": "uint256",
          "name": "",
          "type": "uint256"
        }
      ],
      "stateMutability": "view",
      "type": "function"
    },
    {
      "inputs": [
        {
          "internalType": "address",
          "name": "owner",
          "type": "address"
        }
      ],
      "name": "balanceOf",
      "outputs": [
        {
          "internalType": "uint256",
          "name": "",
          "type": "uint256"
        }
      ],
      "stateMutability": "view",
      "type": "function"
    },
    {
      "inputs": [
        {
          "internalType": "uint256",
          "name": "tokenId",
          "type": "uint256"
        },
        {
          "internalType": "uint256",
          "name": "attrId",
          "type": "uint256"
        }
      ],
      "name": "balanceOf",
      "outputs": [
        {
          "internalType": "uint256",
          "name": "",
          "type": "uint256"
        }
      ],
      "stateMutability": "view",
      "type": "function"
    },
    {
      "inputs": [
        {
          "internalType": "uint256",
          "name": "tokenId",
          "type": "uint256"
        },
        {
          "internalType": "uint256[]",
          "name": "attrIds",
          "type": "uint256[]"
        }
      ],
      "name": "balanceOfBatch",
      "outputs": [
        {
          "internalType": "uint256[]",
          "name": "",
          "type": "uint256[]"
        }
      ],
      "stateMutability": "view",
      "type": "function"
    },
    {
      "inputs": [
        {
          "internalType": "uint256",
          "name": "tokenId",
          "type": "uint256"
        },
        {
          "internalType": "uint256[]",
          "name": "attrIds",
          "type": "uint256[]"
        },
        {
          "internalType": "uint256[]",
          "name": "amounts",
          "type": "uint256[]"
        }
      ],
      "name": "batchAttach",
      "outputs": [],
      "stateMutability": "nonpayable",
      "type": "function"
    },
    {
      "inputs": [
        {
          "internalType": "uint256",
          "name": "tokenId",
          "type": "uint256"
        },
        {
          "internalType": "uint256",
          "name": "attrId",
          "type": "uint256"
        },
        {
          "internalType": "uint256",
          "name": "amount",
          "type": "uint256"
        }
      ],
      "name": "decrease",
      "outputs": [],
      "stateMutability": "nonpayable",
      "type": "function"
    },
    {
      "inputs": [
        {
          "internalType": "bytes32",
          "name": "requestId",
          "type": "bytes32"
        },
        {
          "internalType": "bytes",
          "name": "bytesData",
          "type": "bytes"
        }
      ],
      "name": "fulfillBytes",
      "outputs": [],
      "stateMutability": "nonpayable",
      "type": "function"
    },
    {
      "inputs": [
        {
          "internalType": "uint256",
          "name": "tokenId",
          "type": "uint256"
        }
      ],
      "name": "getApproved",
      "outputs": [
        {
          "internalType": "address",
          "name": "",
          "type": "address"
        }
      ],
      "stateMutability": "view",
      "type": "function"
    },
    {
      "inputs": [
        {
          "internalType": "uint256",
          "name": "tokenId",
          "type": "uint256"
        },
        {
          "internalType": "uint256",
          "name": "attrId",
          "type": "uint256"
        },
        {
          "internalType": "uint256",
          "name": "amount",
          "type": "uint256"
        }
      ],
      "name": "increase",
      "outputs": [],
      "stateMutability": "nonpayable",
      "type": "function"
    },
    {
      "inputs": [
        {
          "internalType": "address",
          "name": "_owner",
          "type": "address"
        },
        {
          "internalType": "address",
          "name": "_operator",
          "type": "address"
        }
      ],
      "name": "isApprovedForAll",
      "outputs": [
        {
          "internalType": "bool",
          "name": "isOperator",
          "type": "bool"
        }
      ],
      "stateMutability": "view",
      "type": "function"
    },
    {
      "inputs": [
        {
          "internalType": "address",
          "name": "forwarder",
          "type": "address"
        }
      ],
      "name": "isTrustedForwarder",
      "outputs": [
        {
          "internalType": "bool",
          "name": "",
          "type": "bool"
        }
      ],
      "stateMutability": "view",
      "type": "function"
    },
    {
      "inputs": [
        {
          "internalType": "address",
          "name": "to",
          "type": "address"
        },
        {
          "internalType": "uint256[]",
          "name": "attrId",
          "type": "uint256[]"
        },
        {
          "internalType": "uint256[]",
          "name": "attrValue",
          "type": "uint256[]"
        }
      ],
      "name": "mintAvatar",
      "outputs": [],
      "stateMutability": "payable",
      "type": "function"
    },
    {
      "inputs": [],
      "name": "mintFee",
      "outputs": [
        {
          "internalType": "uint256",
          "name": "",
          "type": "uint256"
        }
      ],
      "stateMutability": "view",
      "type": "function"
    },
    {
      "inputs": [
        {
          "internalType": "uint256",
          "name": "attrId",
          "type": "uint256"
        }
      ],
      "name": "name",
      "outputs": [
        {
          "internalType": "string",
          "name": "",
          "type": "string"
        }
      ],
      "stateMutability": "view",
      "type": "function"
    },
    {
      "inputs": [],
      "name": "name",
      "outputs": [
        {
          "internalType": "string",
          "name": "",
          "type": "string"
        }
      ],
      "stateMutability": "view",
      "type": "function"
    },
    {
      "inputs": [],
      "name": "owner",
      "outputs": [
        {
          "internalType": "address",
          "name": "",
          "type": "address"
        }
      ],
      "stateMutability": "view",
      "type": "function"
    },
    {
      "inputs": [
        {
          "internalType": "uint256",
          "name": "tokenId",
          "type": "uint256"
        }
      ],
      "name": "ownerOf",
      "outputs": [
        {
          "internalType": "address",
          "name": "",
          "type": "address"
        }
      ],
      "stateMutability": "view",
      "type": "function"
    },
    {
      "inputs": [
        {
          "internalType": "address payable",
          "name": "to",
          "type": "address"
        }
      ],
      "name": "ownerWithdraw",
      "outputs": [],
      "stateMutability": "nonpayable",
      "type": "function"
    },
    {
      "inputs": [
        {
          "internalType": "uint256",
          "name": "tokenId",
          "type": "uint256"
        }
      ],
      "name": "primaryAttributeOf",
      "outputs": [
        {
          "internalType": "uint256",
          "name": "",
          "type": "uint256"
        }
      ],
      "stateMutability": "view",
      "type": "function"
    },
    {
      "inputs": [
        {
          "internalType": "uint256",
          "name": "tokenId",
          "type": "uint256"
        },
        {
          "internalType": "uint256",
          "name": "attrId",
          "type": "uint256"
        }
      ],
      "name": "remove",
      "outputs": [],
      "stateMutability": "nonpayable",
      "type": "function"
    },
    {
      "inputs": [],
      "name": "renounceOwnership",
      "outputs": [],
      "stateMutability": "nonpayable",
      "type": "function"
    },
    {
      "inputs": [
        {
          "internalType": "uint256",
          "name": "tokenId",
          "type": "uint256"
        }
      ],
      "name": "requestNewImage",
      "outputs": [
        {
          "internalType": "bytes32",
          "name": "",
          "type": "bytes32"
        }
      ],
      "stateMutability": "nonpayable",
      "type": "function"
    },
    {
      "inputs": [
        {
          "internalType": "address",
          "name": "from",
          "type": "address"
        },
        {
          "internalType": "address",
          "name": "to",
          "type": "address"
        },
        {
          "internalType": "uint256",
          "name": "tokenId",
          "type": "uint256"
        }
      ],
      "name": "safeTransferFrom",
      "outputs": [],
      "stateMutability": "nonpayable",
      "type": "function"
    },
    {
      "inputs": [
        {
          "internalType": "address",
          "name": "from",
          "type": "address"
        },
        {
          "internalType": "address",
          "name": "to",
          "type": "address"
        },
        {
          "internalType": "uint256",
          "name": "tokenId",
          "type": "uint256"
        },
        {
          "internalType": "bytes",
          "name": "_data",
          "type": "bytes"
        }
      ],
      "name": "safeTransferFrom",
      "outputs": [],
      "stateMutability": "nonpayable",
      "type": "function"
    },
    {
      "inputs": [
        {
          "internalType": "address",
          "name": "operator",
          "type": "address"
        },
        {
          "internalType": "bool",
          "name": "approved",
          "type": "bool"
        }
      ],
      "name": "setApprovalForAll",
      "outputs": [],
      "stateMutability": "nonpayable",
      "type": "function"
    },
    {
      "inputs": [
        {
          "internalType": "uint256",
          "name": "tokenId",
          "type": "uint256"
        },
        {
          "internalType": "uint256",
          "name": "attrId",
          "type": "uint256"
        }
      ],
      "name": "setPrimaryAttribute",
      "outputs": [],
      "stateMutability": "nonpayable",
      "type": "function"
    },
    {
      "inputs": [
        {
          "internalType": "address",
          "name": "_trustedForwarder",
          "type": "address"
        }
      ],
      "name": "setTrustedForwarder",
      "outputs": [],
      "stateMutability": "nonpayable",
      "type": "function"
    },
    {
      "inputs": [
        {
          "internalType": "bytes4",
          "name": "interfaceId",
          "type": "bytes4"
        }
      ],
      "name": "supportsInterface",
      "outputs": [
        {
          "internalType": "bool",
          "name": "",
          "type": "bool"
        }
      ],
      "stateMutability": "view",
      "type": "function"
    },
    {
      "inputs": [
        {
          "internalType": "uint256",
          "name": "attrId",
          "type": "uint256"
        }
      ],
      "name": "symbol",
      "outputs": [
        {
          "internalType": "string",
          "name": "",
          "type": "string"
        }
      ],
      "stateMutability": "view",
      "type": "function"
    },
    {
      "inputs": [],
      "name": "symbol",
      "outputs": [
        {
          "internalType": "string",
          "name": "",
          "type": "string"
        }
      ],
      "stateMutability": "view",
      "type": "function"
    },
    {
      "inputs": [
        {
          "internalType": "uint256",
          "name": "tokenId",
          "type": "uint256"
        }
      ],
      "name": "tokenURI",
      "outputs": [
        {
          "internalType": "string",
          "name": "",
          "type": "string"
        }
      ],
      "stateMutability": "view",
      "type": "function"
    },
    {
      "inputs": [
        {
          "internalType": "address",
          "name": "from",
          "type": "address"
        },
        {
          "internalType": "address",
          "name": "to",
          "type": "address"
        },
        {
          "internalType": "uint256",
          "name": "tokenId",
          "type": "uint256"
        }
      ],
      "name": "transferFrom",
      "outputs": [],
      "stateMutability": "nonpayable",
      "type": "function"
    },
    {
      "inputs": [
        {
          "internalType": "address",
          "name": "newOwner",
          "type": "address"
        }
      ],
      "name": "transferOwnership",
      "outputs": [],
      "stateMutability": "nonpayable",
      "type": "function"
    },
    {
      "inputs": [],
      "name": "trustedForwarder",
      "outputs": [
        {
          "internalType": "address",
          "name": "",
          "type": "address"
        }
      ],
      "stateMutability": "view",
      "type": "function"
    },
    {
      "inputs": [
        {
          "internalType": "uint256",
          "name": "tokenId",
          "type": "uint256"
        },
        {
          "internalType": "uint256[]",
          "name": "attrId",
          "type": "uint256[]"
        },
        {
          "internalType": "uint256[]",
          "name": "attrValue",
          "type": "uint256[]"
        }
      ],
      "name": "updateAvatar",
      "outputs": [],
      "stateMutability": "nonpayable",
      "type": "function"
    },
    {
      "inputs": [],
      "name": "updateFee",
      "outputs": [],
      "stateMutability": "nonpayable",
      "type": "function"
    },
    {
      "inputs": [],
      "name": "versionRecipient",
      "outputs": [
        {
          "internalType": "string",
          "name": "",
          "type": "string"
        }
      ],
      "stateMutability": "view",
      "type": "function"
    }
  ],
  "bytecode": "0x600160125560c060405260056080819052640322e322e360dc1b60a09081526200002d91601991906200053b565b503480156200003b57600080fd5b5060405162005686380380620056868339810160408190526200005e91620005e1565b604051806020016040528060008152506040518060400160405280600f81526020016e22bb32b93cb230bc9020bb30ba30b960891b81525060405180604001604052806002815260200161454160f01b8152508160009080519060200190620000c99291906200053b565b508051620000df9060019060208401906200053b565b505050620000f3816200032b60201b60201c565b50620001086200010262000344565b62000360565b6200016d600160405180604001604052806002815260200161626760f01b8152506040518060400160405280600a815260200169109858dad9dc9bdd5b9960b21b81525060405180602001604052806000815250620003b260201b620025bc1760201c565b620001ce6002604051806040016040528060048152602001631a19585960e21b815250604051806040016040528060048152602001631219585960e21b81525060405180602001604052806000815250620003b260201b620025bc1760201c565b6200022f6003604051806040016040528060048152602001636661636560e01b815250604051806040016040528060048152602001634661636560e01b81525060405180602001604052806000815250620003b260201b620025bc1760201c565b62000296600460405180604001604052806007815260200166636c6f7468657360c81b81525060405180604001604052806007815260200166436c6f7468657360c81b81525060405180602001604052806000815250620003b260201b620025bc1760201c565b678ac7230489e80000601755601580546001600160a01b03199081166001600160a01b038416179091556016805473d0d5e3db44de05e9f294bb0a3beeaf030de24ada9083161790556010805490911673326c977e6efc84e512bb9c30f76e30c160ed06fb179055601180546001600160a01b03191673edaa6962cf1368a92e244ddc11aac49c0a0acc3717905550620006e9565b8051620003409060079060208401906200053b565b5050565b60006200035b6200050560201b620026f61760201c565b905090565b600c80546001600160a01b038381166001600160a01b0319831681179093556040519116919082907f8be0079c531659141344cd1fd0a4f28419497f9722a3daafe3b4186f6b6457e090600090a35050565b60008481526008602052604090206003015460ff1615620004235760405162461bcd60e51b815260206004820152602160248201527f455243333636343a2061747472696275746520616c72656164792065786973746044820152607360f81b606482015260840160405180910390fd5b604080516080810182528481526020808201859052818301849052600160608301526000878152600882529290922081518051929384936200046992849201906200053b565b5060208281015180516200048492600185019201906200053b565b5060408201518051620004a29160028401916020909101906200053b565b50606091909101516003909101805460ff191691151591909117905560405185907fe3c3c9bbda1d6ccb059320eed92d395bd49272efb8a675a188a9d1b4e4da4ce290620004f69087908790879062000663565b60405180910390a25050505050565b600060143610801590620005235750600d546001600160a01b031633145b1562000536575060131936013560601c90565b503390565b8280546200054990620006ac565b90600052602060002090601f0160209004810192826200056d5760008555620005b8565b82601f106200058857805160ff1916838001178555620005b8565b82800160010185558215620005b8579182015b82811115620005b85782518255916020019190600101906200059b565b50620005c6929150620005ca565b5090565b5b80821115620005c65760008155600101620005cb565b600060208284031215620005f457600080fd5b81516001600160a01b03811681146200060c57600080fd5b9392505050565b6000815180845260005b818110156200063b576020818501810151868301820152016200061d565b818111156200064e576000602083870101525b50601f01601f19169290920160200192915050565b60608152600062000678606083018662000613565b82810360208401526200068c818662000613565b90508281036040840152620006a2818562000613565b9695505050505050565b600181811c90821680620006c157607f821691505b60208210811415620006e357634e487b7160e01b600052602260045260246000fd5b50919050565b614f8d80620006f96000396000f3fe6080604052600436106101e05760003560e01c8062ad800c146101e557806301ffc9a71461021b57806306fdde031461024b578063081812fc1461026057806309363c4414610298578063095ea7b3146102c55780631070717b146102e7578063132e09e31461030757806313966db514610327578063169dbe6e1461034b578063173bb4061461036b57806323b872dd1461037e57806342842e0e1461039e5780634682381a146103be578063486ff0cd146103de5780634e41a1fb146103f3578063572b6c05146104135780635d126110146104335780636352211e146104535780636526db7a146104735780636aab782f1461049357806370a08231146104b3578063715018a6146104d3578063756cb823146104e8578063758cdcf0146105085780637da0a8771461051d57806387e21d421461053b5780638da5cb5b1461056857806395d89b411461057d5780639bc5ae5414610592578063a22cb465146105b2578063b4101dce146105d2578063b88d4fde146105f2578063c2fb852314610612578063c87b56dd14610632578063da74222814610652578063e829ffa114610672578063e985e9c5146106aa578063ea699633146106ca578063f2fde38b146106ea578063f8fb14fa1461070a578063f9bfaa7d1461072a575b600080fd5b3480156101f157600080fd5b50610205610200366004613cb8565b61074a565b6040516102129190613d29565b60405180910390f35b34801561022757600080fd5b5061023b610236366004613d52565b61085a565b6040519015158152602001610212565b34801561025757600080fd5b5061020561087a565b34801561026c57600080fd5b5061028061027b366004613cb8565b61090c565b6040516001600160a01b039091168152602001610212565b3480156102a457600080fd5b506102b86102b3366004613cb8565b610994565b6040516102129190613d9f565b3480156102d157600080fd5b506102e56102e0366004613dc7565b6109f5565b005b3480156102f357600080fd5b506102e5610302366004613df3565b610b18565b34801561031357600080fd5b506102e5610322366004613e60565b610b96565b34801561033357600080fd5b5061033d60175481565b604051908152602001610212565b34801561035757600080fd5b5061033d610366366004613df3565b610e1d565b6102e5610379366004613fad565b610e4e565b34801561038a57600080fd5b506102e5610399366004614022565b611166565b3480156103aa57600080fd5b506102e56103b9366004614022565b61119e565b3480156103ca57600080fd5b506102e56103d9366004614063565b6111b9565b3480156103ea57600080fd5b50610205611532565b3480156103ff57600080fd5b5061020561040e366004613cb8565b6115c0565b34801561041f57600080fd5b5061023b61042e366004614096565b61164b565b34801561043f57600080fd5b506102b861044e3660046140b3565b61165f565b34801561045f57600080fd5b5061028061046e366004613cb8565b61170a565b34801561047f57600080fd5b506102e561048e366004613df3565b611781565b34801561049f57600080fd5b5061033d6104ae366004613cb8565b6118cb565b3480156104bf57600080fd5b5061033d6104ce366004614096565b61195b565b3480156104df57600080fd5b506102e56119e2565b3480156104f457600080fd5b506102e56105033660046140fe565b611a2d565b34801561051457600080fd5b506102e5611b3e565b34801561052957600080fd5b50600d546001600160a01b0316610280565b34801561054757600080fd5b5061033d610556366004613cb8565b6000908152600a602052604090205490565b34801561057457600080fd5b50610280611c5b565b34801561058957600080fd5b50610205611c6a565b34801561059e57600080fd5b506102056105ad366004613cb8565b611c79565b3480156105be57600080fd5b506102e56105cd366004614138565b611e11565b3480156105de57600080fd5b506102e56105ed3660046140fe565b611e27565b3480156105fe57600080fd5b506102e561060d3660046141e9565b611f0d565b34801561061e57600080fd5b506102e561062d366004614254565b611f4c565b34801561063e57600080fd5b5061020561064d366004613cb8565b612064565b34801561065e57600080fd5b506102e561066d366004614096565b612282565b34801561067e57600080fd5b5061033d61068d366004613df3565b600960209081526000928352604080842090915290825290205481565b3480156106b657600080fd5b5061023b6106c536600461429a565b6122e2565b3480156106d657600080fd5b5061033d6106e5366004613df3565b612340565b3480156106f657600080fd5b506102e5610705366004614096565b61235c565b34801561071657600080fd5b506102e56107253660046140fe565b612409565b34801561073657600080fd5b506102e5610745366004614096565b612548565b606061075582612724565b6107bc5760405162461bcd60e51b815260206004820152602d60248201527f455243333636343a206e616d6520717565727920666f72206e6f6e657869737460448201526c656e742061747472696275746560981b60648201526084015b60405180910390fd5b600082815260086020526040902080546107d5906142c8565b80601f0160208091040260200160405190810160405280929190818152602001828054610801906142c8565b801561084e5780601f106108235761010080835404028352916020019161084e565b820191906000526020600020905b81548152906001019060200180831161083157829003601f168201915b50505050509050919050565b60006108658261273c565b8061087457506108748261278c565b92915050565b606060008054610889906142c8565b80601f01602080910402602001604051908101604052809291908181526020018280546108b5906142c8565b80156109025780601f106108d757610100808354040283529160200191610902565b820191906000526020600020905b8154815290600101906020018083116108e557829003601f168201915b5050505050905090565b6000610917826127cc565b6109785760405162461bcd60e51b815260206004820152602c60248201527f4552433732313a20617070726f76656420717565727920666f72206e6f6e657860448201526b34b9ba32b73a103a37b5b2b760a11b60648201526084016107b3565b506000908152600460205260409020546001600160a01b031690565b6000818152600b602090815260409182902080548351818402810184019094528084526060939283018282801561084e57602002820191906000526020600020905b8154815260200190600101908083116109d65750505050509050919050565b6000610a008261170a565b9050806001600160a01b0316836001600160a01b03161415610a6e5760405162461bcd60e51b815260206004820152602160248201527f4552433732313a20617070726f76616c20746f2063757272656e74206f776e656044820152603960f91b60648201526084016107b3565b806001600160a01b0316610a806127e9565b6001600160a01b03161480610a9c5750610a9c816106c56127e9565b610b095760405162461bcd60e51b815260206004820152603860248201527f4552433732313a20617070726f76652063616c6c6572206973206e6f74206f776044820152771b995c881b9bdc88185c1c1c9bdd995908199bdc88185b1b60421b60648201526084016107b3565b610b1383836127f8565b505050565b610b228282612866565b610b845760405162461bcd60e51b815260206004820152602d60248201527f455243333636343a20746f6b656e20686173206e6f742061747461636865642060448201526c7468652061747472696275746560981b60648201526084016107b3565b6000918252600a602052604090912055565b6000610ba06127e9565b9050610c218160008888888080602002602001604051908101604052809392919081815260200183836020028082843760009201919091525050604080516020808c0282810182019093528b82529093508b92508a918291850190849080828437600092018290525060408051602081019091529081529250612884915050565b60005b84811015610db457610c4d868683818110610c4157610c416142fd565b90506020020135612724565b610cb05760405162461bcd60e51b815260206004820152602e60248201527f455243333636343a20626174636841747461636820666f72206e6f6e6578697360448201526d74656e742061747472696275746560901b60648201526084016107b3565b60096000878784818110610cc657610cc66142fd565b90506020020135815260200190815260200160002060008881526020019081526020016000205460001415610d38576000878152600b60205260409020868683818110610d1557610d156142fd565b835460018101855560009485526020948590209190940292909201359190920155505b838382818110610d4a57610d4a6142fd565b9050602002013560096000888885818110610d6757610d676142fd565b90506020020135815260200190815260200160002060008981526020019081526020016000206000828254610d9c9190614329565b90915550819050610dac81614341565b915050610c24565b508484604051610dc592919061435c565b6040518091039020816001600160a01b03167fbfb4d8e5891aebe97980c97616b6b0af2006a58ccabe6e1b7e3da24d0906a8566000898787604051610e0d9493929190614388565b60405180910390a3505050505050565b600b6020528160005260406000208181548110610e3957600080fd5b90600052602060002001600091509150505481565b8181600482511115610e785781516040516303cbe2e760e21b81526004016107b391815260200190565b8051825114610e9a5760405163488fa5af60e01b815260040160405180910390fd5b60005b8251811015610f54576000610eb3826001614329565b90505b8351811015610f4157838181518110610ed157610ed16142fd565b6020026020010151848381518110610eeb57610eeb6142fd565b60200260200101511415610f2f57838281518110610f0b57610f0b6142fd565b6020026020010151604051635fa621fd60e01b81526004016107b391815260200190565b80610f3981614341565b915050610eb6565b5080610f4c81614341565b915050610e9d565b5060005b825181101561108757828181518110610f7357610f736142fd565b6020026020010151601560009054906101000a90046001600160a01b03166001600160a01b031663cdc6b050848481518110610fb157610fb16142fd565b60200260200101516040518263ffffffff1660e01b8152600401610fd791815260200190565b602060405180830381865afa158015610ff4573d6000803e3d6000fd5b505050506040513d601f19601f8201168201806040525081019061101891906143d4565b146110755782818151811061102f5761102f6142fd565b6020026020010151828281518110611049576110496142fd565b6020026020010151604051631930e8b360e31b81526004016107b3929190918252602082015260400190565b8061107f81614341565b915050610f58565b50601754341080156110b9575061109c611c5b565b6001600160a01b03166110ad6127e9565b6001600160a01b031614155b156110dd5760175460405163bd4f29e360e01b81526004016107b391815260200190565b60006110e860145490565b90506110f8601480546001019055565b611102868261288c565b60005b855181101561115d5761114b82878381518110611124576111246142fd565b602002602001015187848151811061113e5761113e6142fd565b6020026020010151611e27565b8061115581614341565b915050611105565b50505050505050565b6111776111716127e9565b826128a6565b6111935760405162461bcd60e51b81526004016107b3906143ed565b610b13838383612970565b610b1383838360405180602001604052806000815250611f0d565b81816004825111156111e35781516040516303cbe2e760e21b81526004016107b391815260200190565b80518251146112055760405163488fa5af60e01b815260040160405180910390fd5b60005b825181101561129b57600061121e826001614329565b90505b83518110156112885783818151811061123c5761123c6142fd565b6020026020010151848381518110611256576112566142fd565b6020026020010151141561127657838281518110610f0b57610f0b6142fd565b8061128081614341565b915050611221565b508061129381614341565b915050611208565b5060005b8251811015611388578281815181106112ba576112ba6142fd565b6020026020010151601560009054906101000a90046001600160a01b03166001600160a01b031663cdc6b0508484815181106112f8576112f86142fd565b60200260200101516040518263ffffffff1660e01b815260040161131e91815260200190565b602060405180830381865afa15801561133b573d6000803e3d6000fd5b505050506040513d601f19601f8201168201806040525081019061135f91906143d4565b146113765782818151811061102f5761102f6142fd565b8061138081614341565b91505061129f565b506113928561170a565b6001600160a01b03166113a36127e9565b6001600160a01b0316146113ca576040516326b9cdff60e11b815260040160405180910390fd5b60005b84518110156114ff576000600960008784815181106113ee576113ee6142fd565b602002602001015181526020019081526020016000206000888152602001908152602001600020549050600085838151811061142c5761142c6142fd565b60200260200101518261143f919061443e565b90508061148e5760405162461bcd60e51b815260206004820181905260248201527f4174747269627574652076616c756520686173206e6f74206368616e6765642e60448201526064016107b3565b60008113156114c3576114be888885815181106114ad576114ad6142fd565b602002602001015161072584612afa565b6114ea565b6114ea888885815181106114d9576114d96142fd565b602002602001015161050384612afa565b505080806114f790614341565b9150506113cd565b50600061150b86612b16565b51111561152b5761152b8560405180602001604052806000815250612c85565b5050505050565b6019805461153f906142c8565b80601f016020809104026020016040519081016040528092919081815260200182805461156b906142c8565b80156115b85780601f1061158d576101008083540402835291602001916115b8565b820191906000526020600020905b81548152906001019060200180831161159b57829003601f168201915b505050505081565b60606115cb82612724565b61162f5760405162461bcd60e51b815260206004820152602f60248201527f455243333636343a2073796d626f6c20717565727920666f72206e6f6e65786960448201526e7374656e742061747472696275746560881b60648201526084016107b3565b600082815260086020526040902060010180546107d5906142c8565b600d546001600160a01b0391821691161490565b60606000826001600160401b0381111561167b5761167b613ed9565b6040519080825280602002602001820160405280156116a4578160200160208202803683370190505b50905060005b83811015611701576116d4868686848181106116c8576116c86142fd565b90506020020135612340565b8282815181106116e6576116e66142fd565b60209081029190910101526116fa81614341565b90506116aa565b50949350505050565b6000818152600260205260408120546001600160a01b0316806108745760405162461bcd60e51b815260206004820152602960248201527f4552433732313a206f776e657220717565727920666f72206e6f6e657869737460448201526832b73a103a37b5b2b760b91b60648201526084016107b3565b61178a81612724565b6117f15760405162461bcd60e51b815260206004820152603260248201527f45524333363634557064617461626c653a2072656d6f766520666f72206e6f6e6044820152716578697374656e742061747472696275746560701b60648201526084016107b3565b6000818152600960209081526040808320858452909152902054806118285760405162461bcd60e51b81526004016107b39061447d565b60006118326127e9565b90506118638185600061184487612d10565b61184d87612d10565b5050604080516020810190915260009052505050565b60008381526009602090815260408083208784528252808320839055600b90915290206118909084612d5b565b82816001600160a01b0316600080516020614f38833981519152866000866040516118bd939291906144d3565b60405180910390a350505050565b60007f35366233646130663866383734633862616236353332646537316166353465398180611902833063c2fb852360e01b612db5565b9050611933604051806040016040528060028152602001611a5960f21b81525061192b87612dda565b839190612e3f565b600061193f8284612e5d565b6000818152601860205260409020969096555093949350505050565b60006001600160a01b0382166119c65760405162461bcd60e51b815260206004820152602a60248201527f4552433732313a2062616c616e636520717565727920666f7220746865207a65604482015269726f206164647265737360b01b60648201526084016107b3565b506001600160a01b031660009081526003602052604090205490565b6119ea6127e9565b6001600160a01b03166119fb611c5b565b6001600160a01b031614611a215760405162461bcd60e51b81526004016107b3906144e9565b611a2b6000612e77565b565b611a3682612724565b611a9f5760405162461bcd60e51b815260206004820152603460248201527f45524333363634557064617461626c653a20696e63726561736520666f72206e6044820152736f6e6578697374656e742061747472696275746560601b60648201526084016107b3565b611aa98383612866565b611ac55760405162461bcd60e51b81526004016107b39061447d565b6000611acf6127e9565b9050611ae18160008661184487612d10565b600083815260096020908152604080832087845290915281208054849290611b0a908490614329565b9250508190555082816001600160a01b0316600080516020614f38833981519152600087866040516118bd939291906144d3565b60165460408051633fabe5a360e21b815290516000926001600160a01b03169163feaf968c9160048083019260a09291908290030181865afa158015611b88573d6000803e3d6000fd5b505050506040513d601f19601f82011682018060405250810190611bac919061453a565b50505091505080601660009054906101000a90046001600160a01b03166001600160a01b031663313ce5676040518163ffffffff1660e01b8152600401602060405180830381865afa158015611c06573d6000803e3d6000fd5b505050506040513d601f19601f82011682018060405250810190611c2a919061458a565b611c359060126145ad565b611c4090600a6146b6565b611c4b9060016146c5565b611c5591906146fa565b60175550565b600c546001600160a01b031690565b606060018054610889906142c8565b6060611c8482612724565b611ce55760405162461bcd60e51b815260206004820152602c60248201527f455243333636343a2055524920717565727920666f72206e6f6e65786973746560448201526b6e742061747472696275746560a01b60648201526084016107b3565b60008281526008602052604081206002018054611d01906142c8565b80601f0160208091040260200160405190810160405280929190818152602001828054611d2d906142c8565b8015611d7a5780601f10611d4f57610100808354040283529160200191611d7a565b820191906000526020600020905b815481529060010190602001808311611d5d57829003601f168201915b50505050509050600081511115611dbd5780611d9584612ec9565b604051602001611da692919061472a565b604051602081830303815290604052915050919050565b600060078054611dcc906142c8565b905011611de85760405180602001604052806000815250611e04565b6007611df384612ec9565b604051602001611da6929190614759565b9392505050565b50919050565b611e23611e1c6127e9565b8383612fc6565b5050565b611e3082612724565b611e8e5760405162461bcd60e51b815260206004820152602960248201527f455243333636343a2061747461636820666f72206e6f6e6578697374656e742060448201526861747472696275746560b81b60648201526084016107b3565b6000611e986127e9565b9050611eaa8160008661184487612d10565b6000838152600960209081526040808320878452909152902054611ae1576000848152600b602090815260408083208054600181018255908452828420018690558583526009825280832087845290915281208054849290611b0a908490614329565b611f1e611f186127e9565b836128a6565b611f3a5760405162461bcd60e51b81526004016107b3906143ed565b611f4684848484613091565b50505050565b60008281526013602052604090205482906001600160a01b03163314611fc55760405162461bcd60e51b815260206004820152602860248201527f536f75726365206d75737420626520746865206f7261636c65206f6620746865604482015267081c995c5d595cdd60c21b60648201526084016107b3565b60008181526013602052604080822080546001600160a01b03191690555182917f7cc135e0cebb02c3480ae5d74d377283180a2601f8f644edf7987b009316c63a91a26000838152601860205260409081902054905181906120289085906147f7565b6040519081900381209086907f512a96f491db671df927458839af34af4b802de45106bdd3f7d5c56da24396da90600090a4611f468184612c85565b6060600061207183610994565b6040516305d1261160e41b81529091506000903090635d1261109061209c9087908690600401614813565b600060405180830381865afa1580156120b9573d6000803e3d6000fd5b505050506040513d6000823e601f3d908101601f191682016040526120e1919081019061482c565b6015546040516321c3255560e01b81529192506060916000916001600160a01b0316906321c3255590612118908690600401613d9f565b600060405180830381865afa158015612135573d6000803e3d6000fd5b505050506040513d6000823e601f3d908101601f1916820160405261215d91908101906148bc565b905060005b8451811015612215578261218e868381518110612181576121816142fd565b60200260200101516115c0565b8383815181106121a0576121a06142fd565b60200260200101516040516020016121ba939291906149a8565b6040516020818303038152906040529250600185516121d99190614a2e565b81101561220357826040516020016121f19190614a45565b60405160208183030381529060405292505b8061220d81614341565b915050612162565b50600061225461222488612ec9565b61222d896130c4565b8560405160200161224093929190614a6a565b60405160208183030381529060405261310a565b9050806040516020016122679190614c39565b60405160208183030381529060405295505050505050919050565b61228a6127e9565b6001600160a01b031661229b611c5b565b6001600160a01b0316146122c15760405162461bcd60e51b81526004016107b3906144e9565b600d80546001600160a01b0319166001600160a01b03831617905550565b50565b60006001600160a01b0382167358807bad0b376efc12f5ad86aac70e78ed67deae141561231157506001610874565b506001600160a01b03918216600090815260056020908152604080832093909416825291909152205460ff1690565b6000908152600960209081526040808320938352929052205490565b6123646127e9565b6001600160a01b0316612375611c5b565b6001600160a01b03161461239b5760405162461bcd60e51b81526004016107b3906144e9565b6001600160a01b0381166124005760405162461bcd60e51b815260206004820152602660248201527f4f776e61626c653a206e6577206f776e657220697320746865207a65726f206160448201526564647265737360d01b60648201526084016107b3565b6122df81612e77565b61241282612724565b61247b5760405162461bcd60e51b815260206004820152603460248201527f45524333363634557064617461626c653a20646563726561736520666f72206e6044820152736f6e6578697374656e742061747472696275746560601b60648201526084016107b3565b6124858383612866565b6124a15760405162461bcd60e51b81526004016107b39061447d565b60006124ab6127e9565b90506124bd8185600061184487612d10565b6000838152600960209081526040808320878452909152902054828110156124e457600080fd5b6124ee8382614a2e565b600085815260096020908152604080832089845290915280822092909255905185916001600160a01b03851691600080516020614f3883398151915291612539918a919089906144d3565b60405180910390a35050505050565b6125506127e9565b6001600160a01b0316612561611c5b565b6001600160a01b0316146125875760405162461bcd60e51b81526004016107b3906144e9565b6040516001600160a01b038216904780156108fc02916000818181858888f19350505050158015611e23573d6000803e3d6000fd5b6125c584612724565b1561261c5760405162461bcd60e51b815260206004820152602160248201527f455243333636343a2061747472696275746520616c72656164792065786973746044820152607360f81b60648201526084016107b3565b604080516080810182528481526020808201859052818301849052600160608301526000878152600882529290922081518051929384936126609284920190613bd4565b5060208281015180516126799260018501920190613bd4565b5060408201518051612695916002840191602090910190613bd4565b50606091909101516003909101805460ff191691151591909117905560405185907fe3c3c9bbda1d6ccb059320eed92d395bd49272efb8a675a188a9d1b4e4da4ce2906126e790879087908790614c7e565b60405180910390a25050505050565b60006014361080159061270d575061270d3361164b565b1561271f575060131936013560601c90565b503390565b60009081526008602052604090206003015460ff1690565b60006001600160e01b031982166380ac58cd60e01b148061276d57506001600160e01b03198216635b5e139f60e01b145b8061087457506301ffc9a760e01b6001600160e01b0319831614610874565b60006001600160e01b03198216638ee1b37360e01b14806127bd57506001600160e01b0319821663d5298fa360e01b145b8061087457506108748261273c565b6000908152600260205260409020546001600160a01b0316151590565b60006127f36126f6565b905090565b600081815260046020526040902080546001600160a01b0319166001600160a01b038416908117909155819061282d8261170a565b6001600160a01b03167f8c5be1e5ebec7d5bd14f71427d1e84f3dd0314c0f7b2291e5b200ac8c7c3b92560405160405180910390a45050565b60009081526009602090815260408083209383529290522054151590565b505050505050565b611e2382826040518060200160405280600081525061325d565b60006128b1826127cc565b6129125760405162461bcd60e51b815260206004820152602c60248201527f4552433732313a206f70657261746f7220717565727920666f72206e6f6e657860448201526b34b9ba32b73a103a37b5b2b760a11b60648201526084016107b3565b600061291d8361170a565b9050806001600160a01b0316846001600160a01b031614806129585750836001600160a01b031661294d8461090c565b6001600160a01b0316145b80612968575061296881856122e2565b949350505050565b826001600160a01b03166129838261170a565b6001600160a01b0316146129e75760405162461bcd60e51b815260206004820152602560248201527f4552433732313a207472616e736665722066726f6d20696e636f72726563742060448201526437bbb732b960d91b60648201526084016107b3565b6001600160a01b038216612a495760405162461bcd60e51b8152602060048201526024808201527f4552433732313a207472616e7366657220746f20746865207a65726f206164646044820152637265737360e01b60648201526084016107b3565b612a546000826127f8565b6001600160a01b0383166000908152600360205260408120805460019290612a7d908490614a2e565b90915550506001600160a01b0382166000908152600360205260408120805460019290612aab908490614329565b909155505060008181526002602052604080822080546001600160a01b0319166001600160a01b038681169182179092559151849391871691600080516020614f1883398151915291a4505050565b600080821215612b1257612b0d82614cb7565b610874565b5090565b6060612b21826127cc565b612b875760405162461bcd60e51b815260206004820152603160248201527f45524337323155524953746f726167653a2055524920717565727920666f72206044820152703737b732bc34b9ba32b73a103a37b5b2b760791b60648201526084016107b3565b60008281526006602052604081208054612ba0906142c8565b80601f0160208091040260200160405190810160405280929190818152602001828054612bcc906142c8565b8015612c195780601f10612bee57610100808354040283529160200191612c19565b820191906000526020600020905b815481529060010190602001808311612bfc57829003601f168201915b505050505090506000612c3760408051602081019091526000815290565b9050805160001415612c4a575092915050565b815115612c7c578082604051602001612c6492919061472a565b60405160208183030381529060405292505050919050565b61296884613290565b612c8e826127cc565b612cf15760405162461bcd60e51b815260206004820152602e60248201527f45524337323155524953746f726167653a2055524920736574206f66206e6f6e60448201526d32bc34b9ba32b73a103a37b5b2b760911b60648201526084016107b3565b60008281526006602090815260409091208251610b1392840190613bd4565b60408051600180825281830190925260609160009190602080830190803683370190505090508281600081518110612d4a57612d4a6142fd565b602090810291909101015292915050565b60005b81838281548110612d7157612d716142fd565b906000526020600020015414612d935780612d8b81614341565b915050612d5e565b828181548110612da557612da56142fd565b6000918252602082200155505050565b612dbd613c54565b612dc5613c54565b612dd181868686613340565b95945050505050565b60608060005b6004811015612e385781612e03612dfc866106e5856001614329565b600461337d565b604051602001612e1492919061472a565b60405160208183030381529060405291508080612e3090614341565b915050612de0565b5092915050565b6080830151612e4e908361343f565b6080830151610b13908261343f565b601154600090611e04906001600160a01b03168484613456565b600c80546001600160a01b038381166001600160a01b0319831681179093556040519116919082907f8be0079c531659141344cd1fd0a4f28419497f9722a3daafe3b4186f6b6457e090600090a35050565b606081612eed5750506040805180820190915260018152600360fc1b602082015290565b8160005b8115612f175780612f0181614341565b9150612f109050600a836146fa565b9150612ef1565b6000816001600160401b03811115612f3157612f31613ed9565b6040519080825280601f01601f191660200182016040528015612f5b576020820181803683370190505b5090505b841561296857612f70600183614a2e565b9150612f7d600a86614cd4565b612f88906030614329565b60f81b818381518110612f9d57612f9d6142fd565b60200101906001600160f81b031916908160001a905350612fbf600a866146fa565b9450612f5f565b816001600160a01b0316836001600160a01b031614156130245760405162461bcd60e51b815260206004820152601960248201527822a9219b99189d1030b8383937bb32903a379031b0b63632b960391b60448201526064016107b3565b6001600160a01b03838116600081815260056020908152604080832094871680845294825291829020805460ff191686151590811790915591519182527f17307eab39ab6107e8899845ad3d59bd9653f200f220920489ca2b5937696c31910160405180910390a3505050565b61309c848484612970565b6130a8848484846134e7565b611f465760405162461bcd60e51b81526004016107b390614ce8565b606060006130d183612b16565b8051909150156130ec5780604051602001611da69190614d3a565b60006130f784612dda565b905080604051602001612c649190614d69565b606081516000141561312a57505060408051602081019091526000815290565b6000604051806060016040528060408152602001614ed860409139905060006003845160026131599190614329565b61316391906146fa565b61316e9060046146c5565b6001600160401b0381111561318557613185613ed9565b6040519080825280601f01601f1916602001820160405280156131af576020820181803683370190505b509050600182016020820185865187015b8082101561321b576003820191508151603f8160121c168501518453600184019350603f81600c1c168501518453600184019350603f8160061c168501518453600184019350603f81168501518453506001830192506131c0565b5050600386510660018114613237576002811461324a57613252565b603d6001830353603d6002830353613252565b603d60018303535b509195945050505050565b61326783836135e9565b61327460008484846134e7565b610b135760405162461bcd60e51b81526004016107b390614ce8565b606061329b826127cc565b6132ff5760405162461bcd60e51b815260206004820152602f60248201527f4552433732314d657461646174613a2055524920717565727920666f72206e6f60448201526e3732bc34b9ba32b73a103a37b5b2b760891b60648201526084016107b3565b600061331660408051602081019091526000815290565b905060008151116133365760405180602001604052806000815250611e04565b80611d9584612ec9565b613348613c54565b6133588560800151610100613709565b50509183526001600160a01b031660208301526001600160e01b031916604082015290565b60606000826001600160401b0381111561339957613399613ed9565b6040519080825280601f01601f1916602001820160405280156133c3576020820181803683370190505b509050825b8015613437576133d9600a86614cd4565b6133e4906030614329565b60f81b826133f3600184614a2e565b81518110613403576134036142fd565b60200101906001600160f81b031916908160001a905350613425600a866146fa565b945061343081614dcb565b90506133c8565b509392505050565b61344c8260038351613761565b610b138282613868565b601254600090613467816001614329565b60125583516040808601516080870151519151600093633c6d41b960e01b9361349d938693849392899160029190602401614de2565b60408051601f198184030181529190526020810180516001600160e01b03166001600160e01b03199093169290921790915290506134dd86838684613882565b9695505050505050565b60006001600160a01b0384163b156135e157836001600160a01b031663150b7a026135106127e9565b8786866040518563ffffffff1660e01b81526004016135329493929190614e37565b6020604051808303816000875af192505050801561356d575060408051601f3d908101601f1916820190925261356a91810190614e6a565b60015b6135c7573d80801561359b576040519150601f19603f3d011682016040523d82523d6000602084013e6135a0565b606091505b5080516135bf5760405162461bcd60e51b81526004016107b390614ce8565b805181602001fd5b6001600160e01b031916630a85bd0160e11b149050612968565b506001612968565b6001600160a01b03821661363f5760405162461bcd60e51b815260206004820181905260248201527f4552433732313a206d696e7420746f20746865207a65726f206164647265737360448201526064016107b3565b613648816127cc565b156136945760405162461bcd60e51b815260206004820152601c60248201527b115490cdcc8c4e881d1bdad95b88185b1c9958591e481b5a5b9d195960221b60448201526064016107b3565b6001600160a01b03821660009081526003602052604081208054600192906136bd908490614329565b909155505060008181526002602052604080822080546001600160a01b0319166001600160a01b0386169081179091559051839290600080516020614f18833981519152908290a45050565b613711613c89565b61371c602083614cd4565b156137445761372c602083614cd4565b613737906020614a2e565b6137419083614329565b91505b506020828101829052604080518085526000815290920101905290565b6017816001600160401b03161161378557611f468360e0600585901b1683176139db565b60ff816001600160401b0316116137c1576137ab836018611fe0600586901b16176139db565b50611f46836001600160401b03831660016139f3565b61ffff816001600160401b0316116137fe576137e8836019611fe0600586901b16176139db565b50611f46836001600160401b03831660026139f3565b63ffffffff816001600160401b03161161383d5761382783601a611fe0600586901b16176139db565b50611f46836001600160401b03831660046139f3565b61385283601b611fe0600586901b16176139db565b50611f46836001600160401b03831660086139f3565b613870613c89565b611e0483846000015151848551613a0c565b6040516001600160601b03193060601b1660208201526034810184905260009060540160408051808303601f1901815282825280516020918201206000818152601390925291812080546001600160a01b0319166001600160a01b038a1617905590925082917fb5e6e01e79f91267dc17b4e6314d5d4d03593d2ceee0fbb452b750bd70ea5af99190a2601054604051630200057560e51b81526001600160a01b0390911690634000aea09061394090889087908790600401614e87565b6020604051808303816000875af115801561395f573d6000803e3d6000fd5b505050506040513d601f19601f820116820180604052508101906139839190614eae565b6129685760405162461bcd60e51b815260206004820152602360248201527f756e61626c6520746f207472616e73666572416e6443616c6c20746f206f7261604482015262636c6560e81b60648201526084016107b3565b6139e3613c89565b611e048384600001515184613ae9565b6139fb613c89565b612968848560000151518585613b38565b613a14613c89565b8251821115613a2257600080fd5b6020850151613a318386614329565b1115613a6457613a6485613a5487602001518786613a4f9190614329565b613bac565b613a5f9060026146c5565b613bbd565b600080865180518760208301019350808887011115613a835787860182525b505050602084015b60208410613ac35780518252613aa2602083614329565b9150613aaf602082614329565b9050613abc602085614a2e565b9350613a8b565b51815160001960208690036101000a019081169019919091161790525083949350505050565b613af1613c89565b83602001518310613b1157613b118485602001516002613a5f91906146c5565b835180516020858301018481535080851415613b2e576001810182525b5093949350505050565b613b40613c89565b6020850151613b4f8584614329565b1115613b6357613b6385613a548685614329565b60006001613b7384610100614ecb565b613b7d9190614a2e565b9050855183868201018583198251161781525080518487011115613ba15783860181525b509495945050505050565b600081831115611e0b575081610874565b8151613bc98383613709565b50611f468382613868565b828054613be0906142c8565b90600052602060002090601f016020900481019282613c025760008555613c48565b82601f10613c1b57805160ff1916838001178555613c48565b82800160010185558215613c48579182015b82811115613c48578251825591602001919060010190613c2d565b50612b12929150613ca3565b6040805160a081018252600080825260208201819052918101829052606081019190915260808101613c84613c89565b905290565b604051806040016040528060608152602001600081525090565b5b80821115612b125760008155600101613ca4565b600060208284031215613cca57600080fd5b5035919050565b60005b83811015613cec578181015183820152602001613cd4565b83811115611f465750506000910152565b60008151808452613d15816020860160208601613cd1565b601f01601f19169290920160200192915050565b602081526000611e046020830184613cfd565b6001600160e01b0319811681146122df57600080fd5b600060208284031215613d6457600080fd5b8135611e0481613d3c565b600081518084526020808501945080840160005b83811015613ba157815187529582019590820190600101613d83565b602081526000611e046020830184613d6f565b6001600160a01b03811681146122df57600080fd5b60008060408385031215613dda57600080fd5b8235613de581613db2565b946020939093013593505050565b60008060408385031215613e0657600080fd5b50508035926020909101359150565b60008083601f840112613e2757600080fd5b5081356001600160401b03811115613e3e57600080fd5b6020830191508360208260051b8501011115613e5957600080fd5b9250929050565b600080600080600060608688031215613e7857600080fd5b8535945060208601356001600160401b0380821115613e9657600080fd5b613ea289838a01613e15565b90965094506040880135915080821115613ebb57600080fd5b50613ec888828901613e15565b969995985093965092949392505050565b634e487b7160e01b600052604160045260246000fd5b604051601f8201601f191681016001600160401b0381118282101715613f1757613f17613ed9565b604052919050565b60006001600160401b03821115613f3857613f38613ed9565b5060051b60200190565b600082601f830112613f5357600080fd5b81356020613f68613f6383613f1f565b613eef565b82815260059290921b84018101918181019086841115613f8757600080fd5b8286015b84811015613fa25780358352918301918301613f8b565b509695505050505050565b600080600060608486031215613fc257600080fd5b8335613fcd81613db2565b925060208401356001600160401b0380821115613fe957600080fd5b613ff587838801613f42565b9350604086013591508082111561400b57600080fd5b5061401886828701613f42565b9150509250925092565b60008060006060848603121561403757600080fd5b833561404281613db2565b9250602084013561405281613db2565b929592945050506040919091013590565b60008060006060848603121561407857600080fd5b8335925060208401356001600160401b0380821115613fe957600080fd5b6000602082840312156140a857600080fd5b8135611e0481613db2565b6000806000604084860312156140c857600080fd5b8335925060208401356001600160401b038111156140e557600080fd5b6140f186828701613e15565b9497909650939450505050565b60008060006060848603121561411357600080fd5b505081359360208301359350604090920135919050565b80151581146122df57600080fd5b6000806040838503121561414b57600080fd5b823561415681613db2565b915060208301356141668161412a565b809150509250929050565b60006001600160401b0382111561418a5761418a613ed9565b50601f01601f191660200190565b600082601f8301126141a957600080fd5b81356141b7613f6382614171565b8181528460208386010111156141cc57600080fd5b816020850160208301376000918101602001919091529392505050565b600080600080608085870312156141ff57600080fd5b843561420a81613db2565b9350602085013561421a81613db2565b92506040850135915060608501356001600160401b0381111561423c57600080fd5b61424887828801614198565b91505092959194509250565b6000806040838503121561426757600080fd5b8235915060208301356001600160401b0381111561428457600080fd5b61429085828601614198565b9150509250929050565b600080604083850312156142ad57600080fd5b82356142b881613db2565b9150602083013561416681613db2565b600181811c908216806142dc57607f821691505b60208210811415611e0b57634e487b7160e01b600052602260045260246000fd5b634e487b7160e01b600052603260045260246000fd5b634e487b7160e01b600052601160045260246000fd5b6000821982111561433c5761433c614313565b500190565b600060001982141561435557614355614313565b5060010190565b60006001600160fb1b0383111561437257600080fd5b8260051b80858437600092019182525092915050565b84815260208101849052606060408201819052810182905260006001600160fb1b038311156143b657600080fd5b8260051b808560808501376000920160800191825250949350505050565b6000602082840312156143e657600080fd5b5051919050565b60208082526031908201527f4552433732313a207472616e736665722063616c6c6572206973206e6f74206f6040820152701ddb995c881b9bdc88185c1c1c9bdd9959607a1b606082015260800190565b60008083128015600160ff1b85018412161561445c5761445c614313565b6001600160ff1b038401831381161561447757614477614313565b50500390565b60208082526036908201527f45524333363634557064617461626c653a20746f6b656e20686173206e6f74206040820152756174746163686564207468652061747472696275746560501b606082015260800190565b9283526020830191909152604082015260600190565b6020808252818101527f4f776e61626c653a2063616c6c6572206973206e6f7420746865206f776e6572604082015260600190565b80516001600160501b038116811461453557600080fd5b919050565b600080600080600060a0868803121561455257600080fd5b61455b8661451e565b945060208601519350604086015192506060860151915061457e6080870161451e565b90509295509295909350565b60006020828403121561459c57600080fd5b815160ff81168114611e0457600080fd5b600060ff821660ff84168060ff038211156145ca576145ca614313565b019392505050565b600181815b8085111561460d5781600019048211156145f3576145f3614313565b8085161561460057918102915b93841c93908002906145d7565b509250929050565b60008261462457506001610874565b8161463157506000610874565b816001811461464757600281146146515761466d565b6001915050610874565b60ff84111561466257614662614313565b50506001821b610874565b5060208310610133831016604e8410600b8410161715614690575081810a610874565b61469a83836145d2565b80600019048211156146ae576146ae614313565b029392505050565b6000611e0460ff841683614615565b60008160001904831182151516156146df576146df614313565b500290565b634e487b7160e01b600052601260045260246000fd5b600082614709576147096146e4565b500490565b60008151614720818560208601613cd1565b9290920192915050565b6000835161473c818460208801613cd1565b835190830190614750818360208801613cd1565b01949350505050565b600080845481600182811c91508083168061477557607f831692505b602080841082141561479557634e487b7160e01b86526022600452602486fd5b8180156147a957600181146147ba576147e7565b60ff198616895284890196506147e7565b60008b81526020902060005b868110156147df5781548b8201529085019083016147c6565b505084890196505b505050505050612dd1818561470e565b60008251614809818460208701613cd1565b9190910192915050565b8281526040602082015260006129686040830184613d6f565b6000602080838503121561483f57600080fd5b82516001600160401b0381111561485557600080fd5b8301601f8101851361486657600080fd5b8051614874613f6382613f1f565b81815260059190911b8201830190838101908783111561489357600080fd5b928401925b828410156148b157835182529284019290840190614898565b979650505050505050565b600060208083850312156148cf57600080fd5b82516001600160401b03808211156148e657600080fd5b818501915085601f8301126148fa57600080fd5b8151614908613f6382613f1f565b81815260059190911b8301840190848101908883111561492757600080fd5b8585015b8381101561499b578051858111156149435760008081fd5b8601603f81018b136149555760008081fd5b878101516040614967613f6383614171565b8281528d8284860101111561497c5760008081fd5b61498b838c8301848701613cd1565b865250505091860191860161492b565b5098975050505050505050565b600084516149ba818460208901613cd1565b6e3d913a3930b4ba2fba3cb832911d1160891b90830190815284516149e681600f840160208901613cd1565b6a1116113b30b63ab2911d1160a91b600f92909101918201528351614a1281601a840160208801613cd1565b61227d60f01b601a9290910191820152601c0195945050505050565b600082821015614a4057614a40614313565b500390565b60008251614a57818460208701613cd1565b600b60fa1b920191825250600101919050565b783d913730b6b2911d101122bb32b93cb230bc9020bb30ba30b960391b815261202360f01b60198201528351600090614aaa81601b850160208901613cd1565b7f222c20226465736372697074696f6e223a224576657279646179204176617461601b918401918201527f727320617265206120636f6c6c656374696f6e206f662070726f66696c652070603b8201527f696374757265204e46547320746861742061726520636f6d706c6574656c7920605b8201527f637573746f6d697a61626c652e20596f752063616e20667265656c79206d6f64607b8201527f69667920616e642075706461746520796f757220417661746172207573696e67609b8201527f2074686520644170702e2041747472696275746573206172652073746f72656460bb8201527f206f6e2d636861696e20616e64207468697320616d617a696e6720666c65786960db8201527f62696c69747920697320706f7765726564206279204549502d333636342e222c60fb82015269101134b6b0b3b2911d1160b11b61011b8201526134dd614c2b614c25614c0961012585018961470e565b6f222c2261747472696275746573223a5b60801b815260100190565b8661470e565b615d7d60f01b815260020190565b7f646174613a6170706c69636174696f6e2f6a736f6e3b6261736536342c000000815260008251614c7181601d850160208701613cd1565b91909101601d0192915050565b606081526000614c916060830186613cfd565b8281036020840152614ca38186613cfd565b905082810360408401526134dd8185613cfd565b6000600160ff1b821415614ccd57614ccd614313565b5060000390565b600082614ce357614ce36146e4565b500690565b60208082526032908201527f4552433732313a207472616e7366657220746f206e6f6e20455243373231526560408201527131b2b4bb32b91034b6b83632b6b2b73a32b960711b606082015260800190565b66697066733a2f2f60c81b815260008251614d5c816007850160208701613cd1565b9190910160070192915050565b7f68747470733a2f2f65766572796461796176617461726170692e6865726f6b758152736170702e636f6d2f766965772d6176617461722f60601b602082015260008251614dbe816034850160208701613cd1565b9190910160340192915050565b600081614dda57614dda614313565b506000190190565b60018060a01b038816815286602082015285604082015263ffffffff60e01b851660608201528360808201528260a082015260e060c08201526000614e2a60e0830184613cfd565b9998505050505050505050565b6001600160a01b03858116825284166020820152604081018390526080606082018190526000906134dd90830184613cfd565b600060208284031215614e7c57600080fd5b8151611e0481613d3c565b60018060a01b0384168152826020820152606060408201526000612dd16060830184613cfd565b600060208284031215614ec057600080fd5b8151611e048161412a565b6000611e04838361461556fe4142434445464748494a4b4c4d4e4f505152535455565758595a6162636465666768696a6b6c6d6e6f707172737475767778797a303132333435363738392b2fddf252ad1be2c89b69c2b068fc378daa952ba7f163c4a11628f55a4df523b3ef73b5fbfbf0177b0de2ffe9fd0ae9887dd73d0d865db7ab5ff3c4a6b9bb8db1e3a2646970667358221220e360e2ed0365c7754ab9c79aae378d9f49d007bfe57740afe1eee3bc1257f3a964736f6c634300080b0033",
  "linkReferences": {},
  "deployedLinkReferences": {}
}