{
  "_format": "hh-sol-artifact-1",
  "contractName": "EverydayAvatar",
  "sourceName": "contracts/EverydayAvatar.sol",
  "abi": [
    {
      "inputs": [
        {
          "internalType": "address",
          "name": "dataContract",
          "type": "address"
        }
      ],
      "stateMutability": "nonpayable",
      "type": "constructor"
    },
    {
      "inputs": [],
      "name": "AttributeArraysMismatch",
      "type": "error"
    },
    {
      "inputs": [
        {
          "internalType": "uint256",
          "name": "length",
          "type": "uint256"
        }
      ],
      "name": "BadArrayLength",
      "type": "error"
    },
    {
      "inputs": [
        {
          "internalType": "uint256",
          "name": "attributeId",
          "type": "uint256"
        }
      ],
      "name": "DuplicateAttributes",
      "type": "error"
    },
    {
      "inputs": [
        {
          "internalType": "uint256",
          "name": "requiredAmount",
          "type": "uint256"
        }
      ],
      "name": "InsufficientPayment",
      "type": "error"
    },
    {
      "inputs": [
        {
          "internalType": "uint256",
          "name": "attributeId",
          "type": "uint256"
        },
        {
          "internalType": "uint256",
          "name": "attributeValue",
          "type": "uint256"
        }
      ],
      "name": "InvalidAttributeValue",
      "type": "error"
    },
    {
      "inputs": [],
      "name": "UnauthorizedOperator",
      "type": "error"
    },
    {
      "anonymous": false,
      "inputs": [
        {
          "indexed": true,
          "internalType": "address",
          "name": "owner",
          "type": "address"
        },
        {
          "indexed": true,
          "internalType": "address",
          "name": "approved",
          "type": "address"
        },
        {
          "indexed": true,
          "internalType": "uint256",
          "name": "tokenId",
          "type": "uint256"
        }
      ],
      "name": "Approval",
      "type": "event"
    },
    {
      "anonymous": false,
      "inputs": [
        {
          "indexed": true,
          "internalType": "address",
          "name": "owner",
          "type": "address"
        },
        {
          "indexed": true,
          "internalType": "address",
          "name": "operator",
          "type": "address"
        },
        {
          "indexed": false,
          "internalType": "bool",
          "name": "approved",
          "type": "bool"
        }
      ],
      "name": "ApprovalForAll",
      "type": "event"
    },
    {
      "anonymous": false,
      "inputs": [
        {
          "indexed": true,
          "internalType": "uint256",
          "name": "attrId",
          "type": "uint256"
        },
        {
          "indexed": false,
          "internalType": "string",
          "name": "name",
          "type": "string"
        },
        {
          "indexed": false,
          "internalType": "string",
          "name": "symbol",
          "type": "string"
        },
        {
          "indexed": false,
          "internalType": "string",
          "name": "uri",
          "type": "string"
        }
      ],
      "name": "AttributeCreated",
      "type": "event"
    },
    {
      "anonymous": false,
      "inputs": [
        {
          "indexed": true,
          "internalType": "bytes32",
          "name": "id",
          "type": "bytes32"
        }
      ],
      "name": "ChainlinkCancelled",
      "type": "event"
    },
    {
      "anonymous": false,
      "inputs": [
        {
          "indexed": true,
          "internalType": "bytes32",
          "name": "id",
          "type": "bytes32"
        }
      ],
      "name": "ChainlinkFulfilled",
      "type": "event"
    },
    {
      "anonymous": false,
      "inputs": [
        {
          "indexed": true,
          "internalType": "bytes32",
          "name": "id",
          "type": "bytes32"
        }
      ],
      "name": "ChainlinkRequested",
      "type": "event"
    },
    {
      "anonymous": false,
      "inputs": [
        {
          "indexed": true,
          "internalType": "address",
          "name": "previousOwner",
          "type": "address"
        },
        {
          "indexed": true,
          "internalType": "address",
          "name": "newOwner",
          "type": "address"
        }
      ],
      "name": "OwnershipTransferred",
      "type": "event"
    },
    {
      "anonymous": false,
      "inputs": [
        {
          "indexed": true,
          "internalType": "bytes32",
          "name": "requestId",
          "type": "bytes32"
        },
        {
          "indexed": true,
          "internalType": "bytes",
          "name": "data",
          "type": "bytes"
        },
        {
          "indexed": true,
          "internalType": "uint256",
          "name": "tokenId",
          "type": "uint256"
        }
      ],
      "name": "RequestFulfilled",
      "type": "event"
    },
    {
      "anonymous": false,
      "inputs": [
        {
          "indexed": true,
          "internalType": "address",
          "name": "from",
          "type": "address"
        },
        {
          "indexed": true,
          "internalType": "address",
          "name": "to",
          "type": "address"
        },
        {
          "indexed": true,
          "internalType": "uint256",
          "name": "tokenId",
          "type": "uint256"
        }
      ],
      "name": "Transfer",
      "type": "event"
    },
    {
      "anonymous": false,
      "inputs": [
        {
          "indexed": true,
          "internalType": "address",
          "name": "operator",
          "type": "address"
        },
        {
          "indexed": false,
          "internalType": "uint256",
          "name": "from",
          "type": "uint256"
        },
        {
          "indexed": false,
          "internalType": "uint256",
          "name": "to",
          "type": "uint256"
        },
        {
          "indexed": true,
          "internalType": "uint256[]",
          "name": "attrIds",
          "type": "uint256[]"
        },
        {
          "indexed": false,
          "internalType": "uint256[]",
          "name": "values",
          "type": "uint256[]"
        }
      ],
      "name": "TransferBatch",
      "type": "event"
    },
    {
      "anonymous": false,
      "inputs": [
        {
          "indexed": true,
          "internalType": "address",
          "name": "operator",
          "type": "address"
        },
        {
          "indexed": false,
          "internalType": "uint256",
          "name": "from",
          "type": "uint256"
        },
        {
          "indexed": false,
          "internalType": "uint256",
          "name": "to",
          "type": "uint256"
        },
        {
          "indexed": true,
          "internalType": "uint256",
          "name": "attrId",
          "type": "uint256"
        },
        {
          "indexed": false,
          "internalType": "uint256",
          "name": "value",
          "type": "uint256"
        }
      ],
      "name": "TransferSingle",
      "type": "event"
    },
    {
      "inputs": [
        {
          "internalType": "address",
          "name": "to",
          "type": "address"
        },
        {
          "internalType": "uint256",
          "name": "tokenId",
          "type": "uint256"
        }
      ],
      "name": "approve",
      "outputs": [],
      "stateMutability": "nonpayable",
      "type": "function"
    },
    {
      "inputs": [
        {
          "internalType": "uint256",
          "name": "tokenId",
          "type": "uint256"
        },
        {
          "internalType": "uint256",
          "name": "attrId",
          "type": "uint256"
        },
        {
          "internalType": "uint256",
          "name": "amount",
          "type": "uint256"
        }
      ],
      "name": "attach",
      "outputs": [],
      "stateMutability": "nonpayable",
      "type": "function"
    },
    {
      "inputs": [
        {
          "internalType": "uint256",
          "name": "",
          "type": "uint256"
        },
        {
          "internalType": "uint256",
          "name": "",
          "type": "uint256"
        }
      ],
      "name": "attrBalances",
      "outputs": [
        {
          "internalType": "uint256",
          "name": "",
          "type": "uint256"
        }
      ],
      "stateMutability": "view",
      "type": "function"
    },
    {
      "inputs": [
        {
          "internalType": "uint256",
          "name": "attrId",
          "type": "uint256"
        }
      ],
      "name": "attrURI",
      "outputs": [
        {
          "internalType": "string",
          "name": "",
          "type": "string"
        }
      ],
      "stateMutability": "view",
      "type": "function"
    },
    {
      "inputs": [
        {
          "internalType": "uint256",
          "name": "tokenId",
          "type": "uint256"
        }
      ],
      "name": "attributesOf",
      "outputs": [
        {
          "internalType": "uint256[]",
          "name": "",
          "type": "uint256[]"
        }
      ],
      "stateMutability": "view",
      "type": "function"
    },
    {
      "inputs": [
        {
          "internalType": "uint256",
          "name": "",
          "type": "uint256"
        },
        {
          "internalType": "uint256",
          "name": "",
          "type": "uint256"
        }
      ],
      "name": "attrs",
      "outputs": [
        {
          "internalType": "uint256",
          "name": "",
          "type": "uint256"
        }
      ],
      "stateMutability": "view",
      "type": "function"
    },
    {
      "inputs": [
        {
          "internalType": "address",
          "name": "owner",
          "type": "address"
        }
      ],
      "name": "balanceOf",
      "outputs": [
        {
          "internalType": "uint256",
          "name": "",
          "type": "uint256"
        }
      ],
      "stateMutability": "view",
      "type": "function"
    },
    {
      "inputs": [
        {
          "internalType": "uint256",
          "name": "tokenId",
          "type": "uint256"
        },
        {
          "internalType": "uint256",
          "name": "attrId",
          "type": "uint256"
        }
      ],
      "name": "balanceOf",
      "outputs": [
        {
          "internalType": "uint256",
          "name": "",
          "type": "uint256"
        }
      ],
      "stateMutability": "view",
      "type": "function"
    },
    {
      "inputs": [
        {
          "internalType": "uint256",
          "name": "tokenId",
          "type": "uint256"
        },
        {
          "internalType": "uint256[]",
          "name": "attrIds",
          "type": "uint256[]"
        }
      ],
      "name": "balanceOfBatch",
      "outputs": [
        {
          "internalType": "uint256[]",
          "name": "",
          "type": "uint256[]"
        }
      ],
      "stateMutability": "view",
      "type": "function"
    },
    {
      "inputs": [
        {
          "internalType": "uint256",
          "name": "tokenId",
          "type": "uint256"
        },
        {
          "internalType": "uint256[]",
          "name": "attrIds",
          "type": "uint256[]"
        },
        {
          "internalType": "uint256[]",
          "name": "amounts",
          "type": "uint256[]"
        }
      ],
      "name": "batchAttach",
      "outputs": [],
      "stateMutability": "nonpayable",
      "type": "function"
    },
    {
      "inputs": [
        {
          "internalType": "uint256",
          "name": "tokenId",
          "type": "uint256"
        },
        {
          "internalType": "uint256",
          "name": "attrId",
          "type": "uint256"
        },
        {
          "internalType": "uint256",
          "name": "amount",
          "type": "uint256"
        }
      ],
      "name": "decrease",
      "outputs": [],
      "stateMutability": "nonpayable",
      "type": "function"
    },
    {
      "inputs": [
        {
          "internalType": "bytes32",
          "name": "requestId",
          "type": "bytes32"
        },
        {
          "internalType": "bytes",
          "name": "bytesData",
          "type": "bytes"
        }
      ],
      "name": "fulfillBytes",
      "outputs": [],
      "stateMutability": "nonpayable",
      "type": "function"
    },
    {
      "inputs": [
        {
          "internalType": "uint256",
          "name": "tokenId",
          "type": "uint256"
        }
      ],
      "name": "getApproved",
      "outputs": [
        {
          "internalType": "address",
          "name": "",
          "type": "address"
        }
      ],
      "stateMutability": "view",
      "type": "function"
    },
    {
      "inputs": [
        {
          "internalType": "uint256",
          "name": "tokenId",
          "type": "uint256"
        },
        {
          "internalType": "uint256",
          "name": "attrId",
          "type": "uint256"
        },
        {
          "internalType": "uint256",
          "name": "amount",
          "type": "uint256"
        }
      ],
      "name": "increase",
      "outputs": [],
      "stateMutability": "nonpayable",
      "type": "function"
    },
    {
      "inputs": [
        {
          "internalType": "address",
          "name": "_owner",
          "type": "address"
        },
        {
          "internalType": "address",
          "name": "_operator",
          "type": "address"
        }
      ],
      "name": "isApprovedForAll",
      "outputs": [
        {
          "internalType": "bool",
          "name": "isOperator",
          "type": "bool"
        }
      ],
      "stateMutability": "view",
      "type": "function"
    },
    {
      "inputs": [
        {
          "internalType": "address",
          "name": "forwarder",
          "type": "address"
        }
      ],
      "name": "isTrustedForwarder",
      "outputs": [
        {
          "internalType": "bool",
          "name": "",
          "type": "bool"
        }
      ],
      "stateMutability": "view",
      "type": "function"
    },
    {
      "inputs": [
        {
          "internalType": "address",
          "name": "to",
          "type": "address"
        },
        {
          "internalType": "uint256[]",
          "name": "attrId",
          "type": "uint256[]"
        },
        {
          "internalType": "uint256[]",
          "name": "attrValue",
          "type": "uint256[]"
        }
      ],
      "name": "mintAvatar",
      "outputs": [],
      "stateMutability": "payable",
      "type": "function"
    },
    {
      "inputs": [],
      "name": "mintFee",
      "outputs": [
        {
          "internalType": "uint256",
          "name": "",
          "type": "uint256"
        }
      ],
      "stateMutability": "view",
      "type": "function"
    },
    {
      "inputs": [
        {
          "internalType": "uint256",
          "name": "attrId",
          "type": "uint256"
        }
      ],
      "name": "name",
      "outputs": [
        {
          "internalType": "string",
          "name": "",
          "type": "string"
        }
      ],
      "stateMutability": "view",
      "type": "function"
    },
    {
      "inputs": [],
      "name": "name",
      "outputs": [
        {
          "internalType": "string",
          "name": "",
          "type": "string"
        }
      ],
      "stateMutability": "view",
      "type": "function"
    },
    {
      "inputs": [],
      "name": "owner",
      "outputs": [
        {
          "internalType": "address",
          "name": "",
          "type": "address"
        }
      ],
      "stateMutability": "view",
      "type": "function"
    },
    {
      "inputs": [
        {
          "internalType": "uint256",
          "name": "tokenId",
          "type": "uint256"
        }
      ],
      "name": "ownerOf",
      "outputs": [
        {
          "internalType": "address",
          "name": "",
          "type": "address"
        }
      ],
      "stateMutability": "view",
      "type": "function"
    },
    {
      "inputs": [
        {
          "internalType": "address payable",
          "name": "to",
          "type": "address"
        }
      ],
      "name": "ownerWithdraw",
      "outputs": [],
      "stateMutability": "nonpayable",
      "type": "function"
    },
    {
      "inputs": [
        {
          "internalType": "uint256",
          "name": "tokenId",
          "type": "uint256"
        }
      ],
      "name": "primaryAttributeOf",
      "outputs": [
        {
          "internalType": "uint256",
          "name": "",
          "type": "uint256"
        }
      ],
      "stateMutability": "view",
      "type": "function"
    },
    {
      "inputs": [
        {
          "internalType": "uint256",
          "name": "tokenId",
          "type": "uint256"
        },
        {
          "internalType": "uint256",
          "name": "attrId",
          "type": "uint256"
        }
      ],
      "name": "remove",
      "outputs": [],
      "stateMutability": "nonpayable",
      "type": "function"
    },
    {
      "inputs": [],
      "name": "renounceOwnership",
      "outputs": [],
      "stateMutability": "nonpayable",
      "type": "function"
    },
    {
      "inputs": [
        {
          "internalType": "uint256",
          "name": "tokenId",
          "type": "uint256"
        }
      ],
      "name": "requestNewImage",
      "outputs": [
        {
          "internalType": "bytes32",
          "name": "",
          "type": "bytes32"
        }
      ],
      "stateMutability": "nonpayable",
      "type": "function"
    },
    {
      "inputs": [
        {
          "internalType": "address",
          "name": "from",
          "type": "address"
        },
        {
          "internalType": "address",
          "name": "to",
          "type": "address"
        },
        {
          "internalType": "uint256",
          "name": "tokenId",
          "type": "uint256"
        }
      ],
      "name": "safeTransferFrom",
      "outputs": [],
      "stateMutability": "nonpayable",
      "type": "function"
    },
    {
      "inputs": [
        {
          "internalType": "address",
          "name": "from",
          "type": "address"
        },
        {
          "internalType": "address",
          "name": "to",
          "type": "address"
        },
        {
          "internalType": "uint256",
          "name": "tokenId",
          "type": "uint256"
        },
        {
          "internalType": "bytes",
          "name": "_data",
          "type": "bytes"
        }
      ],
      "name": "safeTransferFrom",
      "outputs": [],
      "stateMutability": "nonpayable",
      "type": "function"
    },
    {
      "inputs": [
        {
          "internalType": "address",
          "name": "operator",
          "type": "address"
        },
        {
          "internalType": "bool",
          "name": "approved",
          "type": "bool"
        }
      ],
      "name": "setApprovalForAll",
      "outputs": [],
      "stateMutability": "nonpayable",
      "type": "function"
    },
    {
      "inputs": [
        {
          "internalType": "uint256",
          "name": "tokenId",
          "type": "uint256"
        },
        {
          "internalType": "uint256",
          "name": "attrId",
          "type": "uint256"
        }
      ],
      "name": "setPrimaryAttribute",
      "outputs": [],
      "stateMutability": "nonpayable",
      "type": "function"
    },
    {
      "inputs": [
        {
          "internalType": "address",
          "name": "_trustedForwarder",
          "type": "address"
        }
      ],
      "name": "setTrustedForwarder",
      "outputs": [],
      "stateMutability": "nonpayable",
      "type": "function"
    },
    {
      "inputs": [
        {
          "internalType": "bytes4",
          "name": "interfaceId",
          "type": "bytes4"
        }
      ],
      "name": "supportsInterface",
      "outputs": [
        {
          "internalType": "bool",
          "name": "",
          "type": "bool"
        }
      ],
      "stateMutability": "view",
      "type": "function"
    },
    {
      "inputs": [
        {
          "internalType": "uint256",
          "name": "attrId",
          "type": "uint256"
        }
      ],
      "name": "symbol",
      "outputs": [
        {
          "internalType": "string",
          "name": "",
          "type": "string"
        }
      ],
      "stateMutability": "view",
      "type": "function"
    },
    {
      "inputs": [],
      "name": "symbol",
      "outputs": [
        {
          "internalType": "string",
          "name": "",
          "type": "string"
        }
      ],
      "stateMutability": "view",
      "type": "function"
    },
    {
      "inputs": [
        {
          "internalType": "uint256",
          "name": "tokenId",
          "type": "uint256"
        }
      ],
      "name": "tokenURI",
      "outputs": [
        {
          "internalType": "string",
          "name": "",
          "type": "string"
        }
      ],
      "stateMutability": "view",
      "type": "function"
    },
    {
      "inputs": [
        {
          "internalType": "address",
          "name": "from",
          "type": "address"
        },
        {
          "internalType": "address",
          "name": "to",
          "type": "address"
        },
        {
          "internalType": "uint256",
          "name": "tokenId",
          "type": "uint256"
        }
      ],
      "name": "transferFrom",
      "outputs": [],
      "stateMutability": "nonpayable",
      "type": "function"
    },
    {
      "inputs": [
        {
          "internalType": "address",
          "name": "newOwner",
          "type": "address"
        }
      ],
      "name": "transferOwnership",
      "outputs": [],
      "stateMutability": "nonpayable",
      "type": "function"
    },
    {
      "inputs": [],
      "name": "trustedForwarder",
      "outputs": [
        {
          "internalType": "address",
          "name": "",
          "type": "address"
        }
      ],
      "stateMutability": "view",
      "type": "function"
    },
    {
      "inputs": [
        {
          "internalType": "uint256",
          "name": "tokenId",
          "type": "uint256"
        },
        {
          "internalType": "uint256[]",
          "name": "attrId",
          "type": "uint256[]"
        },
        {
          "internalType": "uint256[]",
          "name": "attrValue",
          "type": "uint256[]"
        }
      ],
      "name": "updateAvatar",
      "outputs": [],
      "stateMutability": "nonpayable",
      "type": "function"
    },
    {
      "inputs": [],
      "name": "updateFee",
      "outputs": [],
      "stateMutability": "nonpayable",
      "type": "function"
    },
    {
      "inputs": [],
      "name": "versionRecipient",
      "outputs": [
        {
          "internalType": "string",
          "name": "",
          "type": "string"
        }
      ],
      "stateMutability": "view",
      "type": "function"
    }
  ],
  "bytecode": "0x600160125560c060405260056080819052640322e322e360dc1b60a09081526200002d91601991906200053b565b503480156200003b57600080fd5b5060405162005802380380620058028339810160408190526200005e91620005e1565b604051806020016040528060008152506040518060400160405280600f81526020016e22bb32b93cb230bc9020bb30ba30b960891b81525060405180604001604052806002815260200161454160f01b8152508160009080519060200190620000c99291906200053b565b508051620000df9060019060208401906200053b565b505050620000f3816200032b60201b60201c565b50620001086200010262000344565b62000360565b6200016d600160405180604001604052806002815260200161626760f01b8152506040518060400160405280600a815260200169109858dad9dc9bdd5b9960b21b81525060405180602001604052806000815250620003b260201b620026ce1760201c565b620001ce6002604051806040016040528060048152602001631a19585960e21b815250604051806040016040528060048152602001631219585960e21b81525060405180602001604052806000815250620003b260201b620026ce1760201c565b6200022f6003604051806040016040528060048152602001636661636560e01b815250604051806040016040528060048152602001634661636560e01b81525060405180602001604052806000815250620003b260201b620026ce1760201c565b62000296600460405180604001604052806007815260200166636c6f7468657360c81b81525060405180604001604052806007815260200166436c6f7468657360c81b81525060405180602001604052806000815250620003b260201b620026ce1760201c565b678ac7230489e80000601755601580546001600160a01b03199081166001600160a01b038416179091556016805473d0d5e3db44de05e9f294bb0a3beeaf030de24ada9083161790556010805490911673326c977e6efc84e512bb9c30f76e30c160ed06fb179055601180546001600160a01b03191673edaa6962cf1368a92e244ddc11aac49c0a0acc3717905550620006e9565b8051620003409060079060208401906200053b565b5050565b60006200035b6200050560201b620028081760201c565b905090565b600c80546001600160a01b038381166001600160a01b0319831681179093556040519116919082907f8be0079c531659141344cd1fd0a4f28419497f9722a3daafe3b4186f6b6457e090600090a35050565b60008481526008602052604090206003015460ff1615620004235760405162461bcd60e51b815260206004820152602160248201527f455243333636343a2061747472696275746520616c72656164792065786973746044820152607360f81b606482015260840160405180910390fd5b604080516080810182528481526020808201859052818301849052600160608301526000878152600882529290922081518051929384936200046992849201906200053b565b5060208281015180516200048492600185019201906200053b565b5060408201518051620004a29160028401916020909101906200053b565b50606091909101516003909101805460ff191691151591909117905560405185907fe3c3c9bbda1d6ccb059320eed92d395bd49272efb8a675a188a9d1b4e4da4ce290620004f69087908790879062000663565b60405180910390a25050505050565b600060143610801590620005235750600d546001600160a01b031633145b1562000536575060131936013560601c90565b503390565b8280546200054990620006ac565b90600052602060002090601f0160209004810192826200056d5760008555620005b8565b82601f106200058857805160ff1916838001178555620005b8565b82800160010185558215620005b8579182015b82811115620005b85782518255916020019190600101906200059b565b50620005c6929150620005ca565b5090565b5b80821115620005c65760008155600101620005cb565b600060208284031215620005f457600080fd5b81516001600160a01b03811681146200060c57600080fd5b9392505050565b6000815180845260005b818110156200063b576020818501810151868301820152016200061d565b818111156200064e576000602083870101525b50601f01601f19169290920160200192915050565b60608152600062000678606083018662000613565b82810360208401526200068c818662000613565b90508281036040840152620006a2818562000613565b9695505050505050565b600181811c90821680620006c157607f821691505b60208210811415620006e357634e487b7160e01b600052602260045260246000fd5b50919050565b61510980620006f96000396000f3fe6080604052600436106101e05760003560e01c8062ad800c146101e557806301ffc9a71461021b57806306fdde031461024b578063081812fc1461026057806309363c4414610298578063095ea7b3146102c55780631070717b146102e7578063132e09e31461030757806313966db514610327578063169dbe6e1461034b578063173bb4061461036b57806323b872dd1461037e57806342842e0e1461039e5780634682381a146103be578063486ff0cd146103de5780634e41a1fb146103f3578063572b6c05146104135780635d126110146104335780636352211e146104535780636526db7a146104735780636aab782f1461049357806370a08231146104b3578063715018a6146104d3578063756cb823146104e8578063758cdcf0146105085780637da0a8771461051d57806387e21d421461053b5780638da5cb5b1461056857806395d89b411461057d5780639bc5ae5414610592578063a22cb465146105b2578063b4101dce146105d2578063b88d4fde146105f2578063c2fb852314610612578063c87b56dd14610632578063da74222814610652578063e829ffa114610672578063e985e9c5146106aa578063ea699633146106ca578063f2fde38b146106ea578063f8fb14fa1461070a578063f9bfaa7d1461072a575b600080fd5b3480156101f157600080fd5b50610205610200366004613e1e565b61074a565b6040516102129190613e8f565b60405180910390f35b34801561022757600080fd5b5061023b610236366004613eb8565b61085a565b6040519015158152602001610212565b34801561025757600080fd5b5061020561087a565b34801561026c57600080fd5b5061028061027b366004613e1e565b61090c565b6040516001600160a01b039091168152602001610212565b3480156102a457600080fd5b506102b86102b3366004613e1e565b610994565b6040516102129190613f05565b3480156102d157600080fd5b506102e56102e0366004613f2d565b6109f5565b005b3480156102f357600080fd5b506102e5610302366004613f59565b610b18565b34801561031357600080fd5b506102e5610322366004613fc6565b610b96565b34801561033357600080fd5b5061033d60175481565b604051908152602001610212565b34801561035757600080fd5b5061033d610366366004613f59565b610e1d565b6102e5610379366004614113565b610e4e565b34801561038a57600080fd5b506102e5610399366004614188565b61118e565b3480156103aa57600080fd5b506102e56103b9366004614188565b6111c6565b3480156103ca57600080fd5b506102e56103d93660046141c9565b6111e1565b3480156103ea57600080fd5b50610205611623565b3480156103ff57600080fd5b5061020561040e366004613e1e565b6116b1565b34801561041f57600080fd5b5061023b61042e3660046141fc565b61173c565b34801561043f57600080fd5b506102b861044e366004614219565b611750565b34801561045f57600080fd5b5061028061046e366004613e1e565b6117fb565b34801561047f57600080fd5b506102e561048e366004613f59565b611872565b34801561049f57600080fd5b5061033d6104ae366004613e1e565b6119bc565b3480156104bf57600080fd5b5061033d6104ce3660046141fc565b611a4c565b3480156104df57600080fd5b506102e5611ad3565b3480156104f457600080fd5b506102e5610503366004614264565b611b1e565b34801561051457600080fd5b506102e5611c2f565b34801561052957600080fd5b50600d546001600160a01b0316610280565b34801561054757600080fd5b5061033d610556366004613e1e565b6000908152600a602052604090205490565b34801561057457600080fd5b50610280611d4c565b34801561058957600080fd5b50610205611d5b565b34801561059e57600080fd5b506102056105ad366004613e1e565b611d6a565b3480156105be57600080fd5b506102e56105cd36600461429e565b611f02565b3480156105de57600080fd5b506102e56105ed366004614264565b611f18565b3480156105fe57600080fd5b506102e561060d36600461434f565b611ffe565b34801561061e57600080fd5b506102e561062d3660046143ba565b61203d565b34801561063e57600080fd5b5061020561064d366004613e1e565b612155565b34801561065e57600080fd5b506102e561066d3660046141fc565b612394565b34801561067e57600080fd5b5061033d61068d366004613f59565b600960209081526000928352604080842090915290825290205481565b3480156106b657600080fd5b5061023b6106c5366004614400565b6123f4565b3480156106d657600080fd5b5061033d6106e5366004613f59565b612452565b3480156106f657600080fd5b506102e56107053660046141fc565b61246e565b34801561071657600080fd5b506102e5610725366004614264565b61251b565b34801561073657600080fd5b506102e56107453660046141fc565b61265a565b606061075582612836565b6107bc5760405162461bcd60e51b815260206004820152602d60248201527f455243333636343a206e616d6520717565727920666f72206e6f6e657869737460448201526c656e742061747472696275746560981b60648201526084015b60405180910390fd5b600082815260086020526040902080546107d59061442e565b80601f01602080910402602001604051908101604052809291908181526020018280546108019061442e565b801561084e5780601f106108235761010080835404028352916020019161084e565b820191906000526020600020905b81548152906001019060200180831161083157829003601f168201915b50505050509050919050565b60006108658261284e565b8061087457506108748261289e565b92915050565b6060600080546108899061442e565b80601f01602080910402602001604051908101604052809291908181526020018280546108b59061442e565b80156109025780601f106108d757610100808354040283529160200191610902565b820191906000526020600020905b8154815290600101906020018083116108e557829003601f168201915b5050505050905090565b6000610917826128de565b6109785760405162461bcd60e51b815260206004820152602c60248201527f4552433732313a20617070726f76656420717565727920666f72206e6f6e657860448201526b34b9ba32b73a103a37b5b2b760a11b60648201526084016107b3565b506000908152600460205260409020546001600160a01b031690565b6000818152600b602090815260409182902080548351818402810184019094528084526060939283018282801561084e57602002820191906000526020600020905b8154815260200190600101908083116109d65750505050509050919050565b6000610a00826117fb565b9050806001600160a01b0316836001600160a01b03161415610a6e5760405162461bcd60e51b815260206004820152602160248201527f4552433732313a20617070726f76616c20746f2063757272656e74206f776e656044820152603960f91b60648201526084016107b3565b806001600160a01b0316610a806128fb565b6001600160a01b03161480610a9c5750610a9c816106c56128fb565b610b095760405162461bcd60e51b815260206004820152603860248201527f4552433732313a20617070726f76652063616c6c6572206973206e6f74206f776044820152771b995c881b9bdc88185c1c1c9bdd995908199bdc88185b1b60421b60648201526084016107b3565b610b13838361290a565b505050565b610b228282612978565b610b845760405162461bcd60e51b815260206004820152602d60248201527f455243333636343a20746f6b656e20686173206e6f742061747461636865642060448201526c7468652061747472696275746560981b60648201526084016107b3565b6000918252600a602052604090912055565b6000610ba06128fb565b9050610c218160008888888080602002602001604051908101604052809392919081815260200183836020028082843760009201919091525050604080516020808c0282810182019093528b82529093508b92508a918291850190849080828437600092018290525060408051602081019091529081529250612996915050565b60005b84811015610db457610c4d868683818110610c4157610c41614463565b90506020020135612836565b610cb05760405162461bcd60e51b815260206004820152602e60248201527f455243333636343a20626174636841747461636820666f72206e6f6e6578697360448201526d74656e742061747472696275746560901b60648201526084016107b3565b60096000878784818110610cc657610cc6614463565b90506020020135815260200190815260200160002060008881526020019081526020016000205460001415610d38576000878152600b60205260409020868683818110610d1557610d15614463565b835460018101855560009485526020948590209190940292909201359190920155505b838382818110610d4a57610d4a614463565b9050602002013560096000888885818110610d6757610d67614463565b90506020020135815260200190815260200160002060008981526020019081526020016000206000828254610d9c919061448f565b90915550819050610dac816144a7565b915050610c24565b508484604051610dc59291906144c2565b6040518091039020816001600160a01b03167fbfb4d8e5891aebe97980c97616b6b0af2006a58ccabe6e1b7e3da24d0906a8566000898787604051610e0d94939291906144ee565b60405180910390a3505050505050565b600b6020528160005260406000208181548110610e3957600080fd5b90600052602060002001600091509150505481565b8181600482511115610e785781516040516303cbe2e760e21b81526004016107b391815260200190565b8051825114610e9a5760405163488fa5af60e01b815260040160405180910390fd5b60005b8251811015610f54576000610eb382600161448f565b90505b8351811015610f4157838181518110610ed157610ed1614463565b6020026020010151848381518110610eeb57610eeb614463565b60200260200101511415610f2f57838281518110610f0b57610f0b614463565b6020026020010151604051635fa621fd60e01b81526004016107b391815260200190565b80610f39816144a7565b915050610eb6565b5080610f4c816144a7565b915050610e9d565b5060005b82518110156110af57818181518110610f7357610f73614463565b60200260200101516000141580156110405750828181518110610f9857610f98614463565b6020026020010151601560009054906101000a90046001600160a01b03166001600160a01b031663cdc6b050848481518110610fd657610fd6614463565b60200260200101516040518263ffffffff1660e01b8152600401610ffc91815260200190565b602060405180830381865afa158015611019573d6000803e3d6000fd5b505050506040513d601f19601f8201168201806040525081019061103d919061453a565b14155b1561109d5782818151811061105757611057614463565b602002602001015182828151811061107157611071614463565b6020026020010151604051631930e8b360e31b81526004016107b3929190918252602082015260400190565b806110a7816144a7565b915050610f58565b50601754341080156110e157506110c4611d4c565b6001600160a01b03166110d56128fb565b6001600160a01b031614155b156111055760175460405163bd4f29e360e01b81526004016107b391815260200190565b600061111060145490565b9050611120601480546001019055565b61112a868261299e565b60005b8551811015611185576111738287838151811061114c5761114c614463565b602002602001015187848151811061116657611166614463565b6020026020010151611f18565b8061117d816144a7565b91505061112d565b50505050505050565b61119f6111996128fb565b826129b8565b6111bb5760405162461bcd60e51b81526004016107b390614553565b610b13838383612a82565b610b1383838360405180602001604052806000815250611ffe565b818160048251111561120b5781516040516303cbe2e760e21b81526004016107b391815260200190565b805182511461122d5760405163488fa5af60e01b815260040160405180910390fd5b60005b82518110156112c357600061124682600161448f565b90505b83518110156112b05783818151811061126457611264614463565b602002602001015184838151811061127e5761127e614463565b6020026020010151141561129e57838281518110610f0b57610f0b614463565b806112a8816144a7565b915050611249565b50806112bb816144a7565b915050611230565b5060005b82518110156113d8578181815181106112e2576112e2614463565b60200260200101516000141580156113af575082818151811061130757611307614463565b6020026020010151601560009054906101000a90046001600160a01b03166001600160a01b031663cdc6b05084848151811061134557611345614463565b60200260200101516040518263ffffffff1660e01b815260040161136b91815260200190565b602060405180830381865afa158015611388573d6000803e3d6000fd5b505050506040513d601f19601f820116820180604052508101906113ac919061453a565b14155b156113c65782818151811061105757611057614463565b806113d0816144a7565b9150506112c7565b506113e2856117fb565b6001600160a01b03166113f36128fb565b6001600160a01b03161461141a576040516326b9cdff60e11b815260040160405180910390fd5b60005b84518110156115f05783818151811061143857611438614463565b6020026020010151600014156114705761146b8686838151811061145e5761145e614463565b6020026020010151611872565b6115de565b6114938686838151811061148657611486614463565b6020026020010151612452565b6114c75761146b868683815181106114ad576114ad614463565b602002602001015186848151811061116657611166614463565b6000600960008784815181106114df576114df614463565b602002602001015181526020019081526020016000206000888152602001908152602001600020549050600085838151811061151d5761151d614463565b60200260200101518261153091906145a4565b90508061157f5760405162461bcd60e51b815260206004820181905260248201527f4174747269627574652076616c756520686173206e6f74206368616e6765642e60448201526064016107b3565b60008113156115b4576115af8888858151811061159e5761159e614463565b602002602001015161072584612c0c565b6115db565b6115db888885815181106115ca576115ca614463565b602002602001015161050384612c0c565b50505b806115e8816144a7565b91505061141d565b5060006115fc86612c28565b51111561161c5761161c8560405180602001604052806000815250612d97565b5050505050565b601980546116309061442e565b80601f016020809104026020016040519081016040528092919081815260200182805461165c9061442e565b80156116a95780601f1061167e576101008083540402835291602001916116a9565b820191906000526020600020905b81548152906001019060200180831161168c57829003601f168201915b505050505081565b60606116bc82612836565b6117205760405162461bcd60e51b815260206004820152602f60248201527f455243333636343a2073796d626f6c20717565727920666f72206e6f6e65786960448201526e7374656e742061747472696275746560881b60648201526084016107b3565b600082815260086020526040902060010180546107d59061442e565b600d546001600160a01b0391821691161490565b60606000826001600160401b0381111561176c5761176c61403f565b604051908082528060200260200182016040528015611795578160200160208202803683370190505b50905060005b838110156117f2576117c5868686848181106117b9576117b9614463565b90506020020135612452565b8282815181106117d7576117d7614463565b60209081029190910101526117eb816144a7565b905061179b565b50949350505050565b6000818152600260205260408120546001600160a01b0316806108745760405162461bcd60e51b815260206004820152602960248201527f4552433732313a206f776e657220717565727920666f72206e6f6e657869737460448201526832b73a103a37b5b2b760b91b60648201526084016107b3565b61187b81612836565b6118e25760405162461bcd60e51b815260206004820152603260248201527f45524333363634557064617461626c653a2072656d6f766520666f72206e6f6e6044820152716578697374656e742061747472696275746560701b60648201526084016107b3565b6000818152600960209081526040808320858452909152902054806119195760405162461bcd60e51b81526004016107b3906145e3565b60006119236128fb565b90506119548185600061193587612e22565b61193e87612e22565b5050604080516020810190915260009052505050565b60008381526009602090815260408083208784528252808320839055600b90915290206119819084612e6d565b82816001600160a01b03166000805160206150b4833981519152866000866040516119ae93929190614639565b60405180910390a350505050565b60007f353662336461306638663837346338626162363533326465373161663534653981806119f3833063c2fb852360e01b612f1b565b9050611a24604051806040016040528060028152602001611a5960f21b815250611a1c87612f40565b839190612fa5565b6000611a308284612fc3565b6000818152601860205260409020969096555093949350505050565b60006001600160a01b038216611ab75760405162461bcd60e51b815260206004820152602a60248201527f4552433732313a2062616c616e636520717565727920666f7220746865207a65604482015269726f206164647265737360b01b60648201526084016107b3565b506001600160a01b031660009081526003602052604090205490565b611adb6128fb565b6001600160a01b0316611aec611d4c565b6001600160a01b031614611b125760405162461bcd60e51b81526004016107b39061464f565b611b1c6000612fdd565b565b611b2782612836565b611b905760405162461bcd60e51b815260206004820152603460248201527f45524333363634557064617461626c653a20696e63726561736520666f72206e6044820152736f6e6578697374656e742061747472696275746560601b60648201526084016107b3565b611b9a8383612978565b611bb65760405162461bcd60e51b81526004016107b3906145e3565b6000611bc06128fb565b9050611bd28160008661193587612e22565b600083815260096020908152604080832087845290915281208054849290611bfb90849061448f565b9250508190555082816001600160a01b03166000805160206150b4833981519152600087866040516119ae93929190614639565b60165460408051633fabe5a360e21b815290516000926001600160a01b03169163feaf968c9160048083019260a09291908290030181865afa158015611c79573d6000803e3d6000fd5b505050506040513d601f19601f82011682018060405250810190611c9d91906146a0565b50505091505080601660009054906101000a90046001600160a01b03166001600160a01b031663313ce5676040518163ffffffff1660e01b8152600401602060405180830381865afa158015611cf7573d6000803e3d6000fd5b505050506040513d601f19601f82011682018060405250810190611d1b91906146f0565b611d26906012614713565b611d3190600a61481c565b611d3c90600161482b565b611d469190614860565b60175550565b600c546001600160a01b031690565b6060600180546108899061442e565b6060611d7582612836565b611dd65760405162461bcd60e51b815260206004820152602c60248201527f455243333636343a2055524920717565727920666f72206e6f6e65786973746560448201526b6e742061747472696275746560a01b60648201526084016107b3565b60008281526008602052604081206002018054611df29061442e565b80601f0160208091040260200160405190810160405280929190818152602001828054611e1e9061442e565b8015611e6b5780601f10611e4057610100808354040283529160200191611e6b565b820191906000526020600020905b815481529060010190602001808311611e4e57829003601f168201915b50505050509050600081511115611eae5780611e868461302f565b604051602001611e97929190614890565b604051602081830303815290604052915050919050565b600060078054611ebd9061442e565b905011611ed95760405180602001604052806000815250611ef5565b6007611ee48461302f565b604051602001611e979291906148bf565b9392505050565b50919050565b611f14611f0d6128fb565b838361312c565b5050565b611f2182612836565b611f7f5760405162461bcd60e51b815260206004820152602960248201527f455243333636343a2061747461636820666f72206e6f6e6578697374656e742060448201526861747472696275746560b81b60648201526084016107b3565b6000611f896128fb565b9050611f9b8160008661193587612e22565b6000838152600960209081526040808320878452909152902054611bd2576000848152600b602090815260408083208054600181018255908452828420018690558583526009825280832087845290915281208054849290611bfb90849061448f565b61200f6120096128fb565b836129b8565b61202b5760405162461bcd60e51b81526004016107b390614553565b612037848484846131f7565b50505050565b60008281526013602052604090205482906001600160a01b031633146120b65760405162461bcd60e51b815260206004820152602860248201527f536f75726365206d75737420626520746865206f7261636c65206f6620746865604482015267081c995c5d595cdd60c21b60648201526084016107b3565b60008181526013602052604080822080546001600160a01b03191690555182917f7cc135e0cebb02c3480ae5d74d377283180a2601f8f644edf7987b009316c63a91a260008381526018602052604090819020549051819061211990859061495d565b6040519081900381209086907f512a96f491db671df927458839af34af4b802de45106bdd3f7d5c56da24396da90600090a46120378184612d97565b6060600061216283610994565b6040516305d1261160e41b81529091506000903090635d1261109061218d9087908690600401614979565b600060405180830381865afa1580156121aa573d6000803e3d6000fd5b505050506040513d6000823e601f3d908101601f191682016040526121d29190810190614992565b6015546040516321c3255560e01b81529192506060916000916001600160a01b0316906321c3255590612209908690600401613f05565b600060405180830381865afa158015612226573d6000803e3d6000fd5b505050506040513d6000823e601f3d908101601f1916820160405261224e9190810190614a22565b905060005b84518110156123275784818151811061226e5761226e614463565b602002602001015160001461231557826122a086838151811061229357612293614463565b60200260200101516116b1565b8383815181106122b2576122b2614463565b60200260200101516040516020016122cc93929190614b0e565b6040516020818303038152906040529250600185516122eb9190614b94565b81101561231557826040516020016123039190614bab565b60405160208183030381529060405292505b8061231f816144a7565b915050612253565b5060006123666123368861302f565b61233f8961322a565b8560405160200161235293929190614bd0565b604051602081830303815290604052613270565b9050806040516020016123799190614d9f565b60405160208183030381529060405295505050505050919050565b61239c6128fb565b6001600160a01b03166123ad611d4c565b6001600160a01b0316146123d35760405162461bcd60e51b81526004016107b39061464f565b600d80546001600160a01b0319166001600160a01b03831617905550565b50565b60006001600160a01b0382167358807bad0b376efc12f5ad86aac70e78ed67deae141561242357506001610874565b506001600160a01b03918216600090815260056020908152604080832093909416825291909152205460ff1690565b6000908152600960209081526040808320938352929052205490565b6124766128fb565b6001600160a01b0316612487611d4c565b6001600160a01b0316146124ad5760405162461bcd60e51b81526004016107b39061464f565b6001600160a01b0381166125125760405162461bcd60e51b815260206004820152602660248201527f4f776e61626c653a206e6577206f776e657220697320746865207a65726f206160448201526564647265737360d01b60648201526084016107b3565b6123f181612fdd565b61252482612836565b61258d5760405162461bcd60e51b815260206004820152603460248201527f45524333363634557064617461626c653a20646563726561736520666f72206e6044820152736f6e6578697374656e742061747472696275746560601b60648201526084016107b3565b6125978383612978565b6125b35760405162461bcd60e51b81526004016107b3906145e3565b60006125bd6128fb565b90506125cf8185600061193587612e22565b6000838152600960209081526040808320878452909152902054828110156125f657600080fd5b6126008382614b94565b600085815260096020908152604080832089845290915280822092909255905185916001600160a01b038516916000805160206150b48339815191529161264b918a91908990614639565b60405180910390a35050505050565b6126626128fb565b6001600160a01b0316612673611d4c565b6001600160a01b0316146126995760405162461bcd60e51b81526004016107b39061464f565b6040516001600160a01b038216904780156108fc02916000818181858888f19350505050158015611f14573d6000803e3d6000fd5b6126d784612836565b1561272e5760405162461bcd60e51b815260206004820152602160248201527f455243333636343a2061747472696275746520616c72656164792065786973746044820152607360f81b60648201526084016107b3565b604080516080810182528481526020808201859052818301849052600160608301526000878152600882529290922081518051929384936127729284920190613d3a565b50602082810151805161278b9260018501920190613d3a565b50604082015180516127a7916002840191602090910190613d3a565b50606091909101516003909101805460ff191691151591909117905560405185907fe3c3c9bbda1d6ccb059320eed92d395bd49272efb8a675a188a9d1b4e4da4ce2906127f990879087908790614de4565b60405180910390a25050505050565b60006014361080159061281f575061281f3361173c565b15612831575060131936013560601c90565b503390565b60009081526008602052604090206003015460ff1690565b60006001600160e01b031982166380ac58cd60e01b148061287f57506001600160e01b03198216635b5e139f60e01b145b8061087457506301ffc9a760e01b6001600160e01b0319831614610874565b60006001600160e01b03198216638ee1b37360e01b14806128cf57506001600160e01b0319821663d5298fa360e01b145b8061087457506108748261284e565b6000908152600260205260409020546001600160a01b0316151590565b6000612905612808565b905090565b600081815260046020526040902080546001600160a01b0319166001600160a01b038416908117909155819061293f826117fb565b6001600160a01b03167f8c5be1e5ebec7d5bd14f71427d1e84f3dd0314c0f7b2291e5b200ac8c7c3b92560405160405180910390a45050565b60009081526009602090815260408083209383529290522054151590565b505050505050565b611f148282604051806020016040528060008152506133c3565b60006129c3826128de565b612a245760405162461bcd60e51b815260206004820152602c60248201527f4552433732313a206f70657261746f7220717565727920666f72206e6f6e657860448201526b34b9ba32b73a103a37b5b2b760a11b60648201526084016107b3565b6000612a2f836117fb565b9050806001600160a01b0316846001600160a01b03161480612a6a5750836001600160a01b0316612a5f8461090c565b6001600160a01b0316145b80612a7a5750612a7a81856123f4565b949350505050565b826001600160a01b0316612a95826117fb565b6001600160a01b031614612af95760405162461bcd60e51b815260206004820152602560248201527f4552433732313a207472616e736665722066726f6d20696e636f72726563742060448201526437bbb732b960d91b60648201526084016107b3565b6001600160a01b038216612b5b5760405162461bcd60e51b8152602060048201526024808201527f4552433732313a207472616e7366657220746f20746865207a65726f206164646044820152637265737360e01b60648201526084016107b3565b612b6660008261290a565b6001600160a01b0383166000908152600360205260408120805460019290612b8f908490614b94565b90915550506001600160a01b0382166000908152600360205260408120805460019290612bbd90849061448f565b909155505060008181526002602052604080822080546001600160a01b0319166001600160a01b03868116918217909255915184939187169160008051602061509483398151915291a4505050565b600080821215612c2457612c1f82614e1d565b610874565b5090565b6060612c33826128de565b612c995760405162461bcd60e51b815260206004820152603160248201527f45524337323155524953746f726167653a2055524920717565727920666f72206044820152703737b732bc34b9ba32b73a103a37b5b2b760791b60648201526084016107b3565b60008281526006602052604081208054612cb29061442e565b80601f0160208091040260200160405190810160405280929190818152602001828054612cde9061442e565b8015612d2b5780601f10612d0057610100808354040283529160200191612d2b565b820191906000526020600020905b815481529060010190602001808311612d0e57829003601f168201915b505050505090506000612d4960408051602081019091526000815290565b9050805160001415612d5c575092915050565b815115612d8e578082604051602001612d76929190614890565b60405160208183030381529060405292505050919050565b612a7a846133f6565b612da0826128de565b612e035760405162461bcd60e51b815260206004820152602e60248201527f45524337323155524953746f726167653a2055524920736574206f66206e6f6e60448201526d32bc34b9ba32b73a103a37b5b2b760911b60648201526084016107b3565b60008281526006602090815260409091208251610b1392840190613d3a565b60408051600180825281830190925260609160009190602080830190803683370190505090508281600081518110612e5c57612e5c614463565b602090810291909101015292915050565b60005b81838281548110612e8357612e83614463565b906000526020600020015414612ea55780612e9d816144a7565b915050612e70565b82548390612eb590600190614b94565b81548110612ec557612ec5614463565b9060005260206000200154838281548110612ee257612ee2614463565b906000526020600020018190555082805480612f0057612f00614e3a565b60019003818190600052602060002001600090559055505050565b612f23613dba565b612f2b613dba565b612f37818686866134a6565b95945050505050565b60608060005b6004811015612f9e5781612f69612f62866106e585600161448f565b60046134e3565b604051602001612f7a929190614890565b60405160208183030381529060405291508080612f96906144a7565b915050612f46565b5092915050565b6080830151612fb490836135a5565b6080830151610b1390826135a5565b601154600090611ef5906001600160a01b031684846135bc565b600c80546001600160a01b038381166001600160a01b0319831681179093556040519116919082907f8be0079c531659141344cd1fd0a4f28419497f9722a3daafe3b4186f6b6457e090600090a35050565b6060816130535750506040805180820190915260018152600360fc1b602082015290565b8160005b811561307d5780613067816144a7565b91506130769050600a83614860565b9150613057565b6000816001600160401b038111156130975761309761403f565b6040519080825280601f01601f1916602001820160405280156130c1576020820181803683370190505b5090505b8415612a7a576130d6600183614b94565b91506130e3600a86614e50565b6130ee90603061448f565b60f81b81838151811061310357613103614463565b60200101906001600160f81b031916908160001a905350613125600a86614860565b94506130c5565b816001600160a01b0316836001600160a01b0316141561318a5760405162461bcd60e51b815260206004820152601960248201527822a9219b99189d1030b8383937bb32903a379031b0b63632b960391b60448201526064016107b3565b6001600160a01b03838116600081815260056020908152604080832094871680845294825291829020805460ff191686151590811790915591519182527f17307eab39ab6107e8899845ad3d59bd9653f200f220920489ca2b5937696c31910160405180910390a3505050565b613202848484612a82565b61320e8484848461364d565b6120375760405162461bcd60e51b81526004016107b390614e64565b6060600061323783612c28565b8051909150156132525780604051602001611e979190614eb6565b600061325d84612f40565b905080604051602001612d769190614ee5565b606081516000141561329057505060408051602081019091526000815290565b600060405180606001604052806040815260200161505460409139905060006003845160026132bf919061448f565b6132c99190614860565b6132d490600461482b565b6001600160401b038111156132eb576132eb61403f565b6040519080825280601f01601f191660200182016040528015613315576020820181803683370190505b509050600182016020820185865187015b80821015613381576003820191508151603f8160121c168501518453600184019350603f81600c1c168501518453600184019350603f8160061c168501518453600184019350603f8116850151845350600183019250613326565b505060038651066001811461339d57600281146133b0576133b8565b603d6001830353603d60028303536133b8565b603d60018303535b509195945050505050565b6133cd838361374f565b6133da600084848461364d565b610b135760405162461bcd60e51b81526004016107b390614e64565b6060613401826128de565b6134655760405162461bcd60e51b815260206004820152602f60248201527f4552433732314d657461646174613a2055524920717565727920666f72206e6f60448201526e3732bc34b9ba32b73a103a37b5b2b760891b60648201526084016107b3565b600061347c60408051602081019091526000815290565b9050600081511161349c5760405180602001604052806000815250611ef5565b80611e868461302f565b6134ae613dba565b6134be856080015161010061386f565b50509183526001600160a01b031660208301526001600160e01b031916604082015290565b60606000826001600160401b038111156134ff576134ff61403f565b6040519080825280601f01601f191660200182016040528015613529576020820181803683370190505b509050825b801561359d5761353f600a86614e50565b61354a90603061448f565b60f81b82613559600184614b94565b8151811061356957613569614463565b60200101906001600160f81b031916908160001a90535061358b600a86614860565b945061359681614f47565b905061352e565b509392505050565b6135b282600383516138c7565b610b1382826139ce565b6012546000906135cd81600161448f565b60125583516040808601516080870151519151600093633c6d41b960e01b93613603938693849392899160029190602401614f5e565b60408051601f198184030181529190526020810180516001600160e01b03166001600160e01b0319909316929092179091529050613643868386846139e8565b9695505050505050565b60006001600160a01b0384163b1561374757836001600160a01b031663150b7a026136766128fb565b8786866040518563ffffffff1660e01b81526004016136989493929190614fb3565b6020604051808303816000875af19250505080156136d3575060408051601f3d908101601f191682019092526136d091810190614fe6565b60015b61372d573d808015613701576040519150601f19603f3d011682016040523d82523d6000602084013e613706565b606091505b5080516137255760405162461bcd60e51b81526004016107b390614e64565b805181602001fd5b6001600160e01b031916630a85bd0160e11b149050612a7a565b506001612a7a565b6001600160a01b0382166137a55760405162461bcd60e51b815260206004820181905260248201527f4552433732313a206d696e7420746f20746865207a65726f206164647265737360448201526064016107b3565b6137ae816128de565b156137fa5760405162461bcd60e51b815260206004820152601c60248201527b115490cdcc8c4e881d1bdad95b88185b1c9958591e481b5a5b9d195960221b60448201526064016107b3565b6001600160a01b038216600090815260036020526040812080546001929061382390849061448f565b909155505060008181526002602052604080822080546001600160a01b0319166001600160a01b0386169081179091559051839290600080516020615094833981519152908290a45050565b613877613def565b613882602083614e50565b156138aa57613892602083614e50565b61389d906020614b94565b6138a7908361448f565b91505b506020828101829052604080518085526000815290920101905290565b6017816001600160401b0316116138eb576120378360e0600585901b168317613b41565b60ff816001600160401b03161161392757613911836018611fe0600586901b1617613b41565b50612037836001600160401b0383166001613b59565b61ffff816001600160401b0316116139645761394e836019611fe0600586901b1617613b41565b50612037836001600160401b0383166002613b59565b63ffffffff816001600160401b0316116139a35761398d83601a611fe0600586901b1617613b41565b50612037836001600160401b0383166004613b59565b6139b883601b611fe0600586901b1617613b41565b50612037836001600160401b0383166008613b59565b6139d6613def565b611ef583846000015151848551613b72565b6040516001600160601b03193060601b1660208201526034810184905260009060540160408051808303601f1901815282825280516020918201206000818152601390925291812080546001600160a01b0319166001600160a01b038a1617905590925082917fb5e6e01e79f91267dc17b4e6314d5d4d03593d2ceee0fbb452b750bd70ea5af99190a2601054604051630200057560e51b81526001600160a01b0390911690634000aea090613aa690889087908790600401615003565b6020604051808303816000875af1158015613ac5573d6000803e3d6000fd5b505050506040513d601f19601f82011682018060405250810190613ae9919061502a565b612a7a5760405162461bcd60e51b815260206004820152602360248201527f756e61626c6520746f207472616e73666572416e6443616c6c20746f206f7261604482015262636c6560e81b60648201526084016107b3565b613b49613def565b611ef58384600001515184613c4f565b613b61613def565b612a7a848560000151518585613c9e565b613b7a613def565b8251821115613b8857600080fd5b6020850151613b97838661448f565b1115613bca57613bca85613bba87602001518786613bb5919061448f565b613d12565b613bc590600261482b565b613d23565b600080865180518760208301019350808887011115613be95787860182525b505050602084015b60208410613c295780518252613c0860208361448f565b9150613c1560208261448f565b9050613c22602085614b94565b9350613bf1565b51815160001960208690036101000a019081169019919091161790525083949350505050565b613c57613def565b83602001518310613c7757613c778485602001516002613bc5919061482b565b835180516020858301018481535080851415613c94576001810182525b5093949350505050565b613ca6613def565b6020850151613cb5858461448f565b1115613cc957613cc985613bba868561448f565b60006001613cd984610100615047565b613ce39190614b94565b9050855183868201018583198251161781525080518487011115613d075783860181525b509495945050505050565b600081831115611efc575081610874565b8151613d2f838361386f565b5061203783826139ce565b828054613d469061442e565b90600052602060002090601f016020900481019282613d685760008555613dae565b82601f10613d8157805160ff1916838001178555613dae565b82800160010185558215613dae579182015b82811115613dae578251825591602001919060010190613d93565b50612c24929150613e09565b6040805160a081018252600080825260208201819052918101829052606081019190915260808101613dea613def565b905290565b604051806040016040528060608152602001600081525090565b5b80821115612c245760008155600101613e0a565b600060208284031215613e3057600080fd5b5035919050565b60005b83811015613e52578181015183820152602001613e3a565b838111156120375750506000910152565b60008151808452613e7b816020860160208601613e37565b601f01601f19169290920160200192915050565b602081526000611ef56020830184613e63565b6001600160e01b0319811681146123f157600080fd5b600060208284031215613eca57600080fd5b8135611ef581613ea2565b600081518084526020808501945080840160005b83811015613d0757815187529582019590820190600101613ee9565b602081526000611ef56020830184613ed5565b6001600160a01b03811681146123f157600080fd5b60008060408385031215613f4057600080fd5b8235613f4b81613f18565b946020939093013593505050565b60008060408385031215613f6c57600080fd5b50508035926020909101359150565b60008083601f840112613f8d57600080fd5b5081356001600160401b03811115613fa457600080fd5b6020830191508360208260051b8501011115613fbf57600080fd5b9250929050565b600080600080600060608688031215613fde57600080fd5b8535945060208601356001600160401b0380821115613ffc57600080fd5b61400889838a01613f7b565b9096509450604088013591508082111561402157600080fd5b5061402e88828901613f7b565b969995985093965092949392505050565b634e487b7160e01b600052604160045260246000fd5b604051601f8201601f191681016001600160401b038111828210171561407d5761407d61403f565b604052919050565b60006001600160401b0382111561409e5761409e61403f565b5060051b60200190565b600082601f8301126140b957600080fd5b813560206140ce6140c983614085565b614055565b82815260059290921b840181019181810190868411156140ed57600080fd5b8286015b8481101561410857803583529183019183016140f1565b509695505050505050565b60008060006060848603121561412857600080fd5b833561413381613f18565b925060208401356001600160401b038082111561414f57600080fd5b61415b878388016140a8565b9350604086013591508082111561417157600080fd5b5061417e868287016140a8565b9150509250925092565b60008060006060848603121561419d57600080fd5b83356141a881613f18565b925060208401356141b881613f18565b929592945050506040919091013590565b6000806000606084860312156141de57600080fd5b8335925060208401356001600160401b038082111561414f57600080fd5b60006020828403121561420e57600080fd5b8135611ef581613f18565b60008060006040848603121561422e57600080fd5b8335925060208401356001600160401b0381111561424b57600080fd5b61425786828701613f7b565b9497909650939450505050565b60008060006060848603121561427957600080fd5b505081359360208301359350604090920135919050565b80151581146123f157600080fd5b600080604083850312156142b157600080fd5b82356142bc81613f18565b915060208301356142cc81614290565b809150509250929050565b60006001600160401b038211156142f0576142f061403f565b50601f01601f191660200190565b600082601f83011261430f57600080fd5b813561431d6140c9826142d7565b81815284602083860101111561433257600080fd5b816020850160208301376000918101602001919091529392505050565b6000806000806080858703121561436557600080fd5b843561437081613f18565b9350602085013561438081613f18565b92506040850135915060608501356001600160401b038111156143a257600080fd5b6143ae878288016142fe565b91505092959194509250565b600080604083850312156143cd57600080fd5b8235915060208301356001600160401b038111156143ea57600080fd5b6143f6858286016142fe565b9150509250929050565b6000806040838503121561441357600080fd5b823561441e81613f18565b915060208301356142cc81613f18565b600181811c9082168061444257607f821691505b60208210811415611efc57634e487b7160e01b600052602260045260246000fd5b634e487b7160e01b600052603260045260246000fd5b634e487b7160e01b600052601160045260246000fd5b600082198211156144a2576144a2614479565b500190565b60006000198214156144bb576144bb614479565b5060010190565b60006001600160fb1b038311156144d857600080fd5b8260051b80858437600092019182525092915050565b84815260208101849052606060408201819052810182905260006001600160fb1b0383111561451c57600080fd5b8260051b808560808501376000920160800191825250949350505050565b60006020828403121561454c57600080fd5b5051919050565b60208082526031908201527f4552433732313a207472616e736665722063616c6c6572206973206e6f74206f6040820152701ddb995c881b9bdc88185c1c1c9bdd9959607a1b606082015260800190565b60008083128015600160ff1b8501841216156145c2576145c2614479565b6001600160ff1b03840183138116156145dd576145dd614479565b50500390565b60208082526036908201527f45524333363634557064617461626c653a20746f6b656e20686173206e6f74206040820152756174746163686564207468652061747472696275746560501b606082015260800190565b9283526020830191909152604082015260600190565b6020808252818101527f4f776e61626c653a2063616c6c6572206973206e6f7420746865206f776e6572604082015260600190565b80516001600160501b038116811461469b57600080fd5b919050565b600080600080600060a086880312156146b857600080fd5b6146c186614684565b94506020860151935060408601519250606086015191506146e460808701614684565b90509295509295909350565b60006020828403121561470257600080fd5b815160ff81168114611ef557600080fd5b600060ff821660ff84168060ff0382111561473057614730614479565b019392505050565b600181815b8085111561477357816000190482111561475957614759614479565b8085161561476657918102915b93841c939080029061473d565b509250929050565b60008261478a57506001610874565b8161479757506000610874565b81600181146147ad57600281146147b7576147d3565b6001915050610874565b60ff8411156147c8576147c8614479565b50506001821b610874565b5060208310610133831016604e8410600b84101617156147f6575081810a610874565b6148008383614738565b806000190482111561481457614814614479565b029392505050565b6000611ef560ff84168361477b565b600081600019048311821515161561484557614845614479565b500290565b634e487b7160e01b600052601260045260246000fd5b60008261486f5761486f61484a565b500490565b60008151614886818560208601613e37565b9290920192915050565b600083516148a2818460208801613e37565b8351908301906148b6818360208801613e37565b01949350505050565b600080845481600182811c9150808316806148db57607f831692505b60208084108214156148fb57634e487b7160e01b86526022600452602486fd5b81801561490f57600181146149205761494d565b60ff1986168952848901965061494d565b60008b81526020902060005b868110156149455781548b82015290850190830161492c565b505084890196505b505050505050612f378185614874565b6000825161496f818460208701613e37565b9190910192915050565b828152604060208201526000612a7a6040830184613ed5565b600060208083850312156149a557600080fd5b82516001600160401b038111156149bb57600080fd5b8301601f810185136149cc57600080fd5b80516149da6140c982614085565b81815260059190911b820183019083810190878311156149f957600080fd5b928401925b82841015614a17578351825292840192908401906149fe565b979650505050505050565b60006020808385031215614a3557600080fd5b82516001600160401b0380821115614a4c57600080fd5b818501915085601f830112614a6057600080fd5b8151614a6e6140c982614085565b81815260059190911b83018401908481019088831115614a8d57600080fd5b8585015b83811015614b0157805185811115614aa95760008081fd5b8601603f81018b13614abb5760008081fd5b878101516040614acd6140c9836142d7565b8281528d82848601011115614ae25760008081fd5b614af1838c8301848701613e37565b8652505050918601918601614a91565b5098975050505050505050565b60008451614b20818460208901613e37565b6e3d913a3930b4ba2fba3cb832911d1160891b9083019081528451614b4c81600f840160208901613e37565b6a1116113b30b63ab2911d1160a91b600f92909101918201528351614b7881601a840160208801613e37565b61227d60f01b601a9290910191820152601c0195945050505050565b600082821015614ba657614ba6614479565b500390565b60008251614bbd818460208701613e37565b600b60fa1b920191825250600101919050565b783d913730b6b2911d101122bb32b93cb230bc9020bb30ba30b960391b815261202360f01b60198201528351600090614c1081601b850160208901613e37565b7f222c20226465736372697074696f6e223a224576657279646179204176617461601b918401918201527f727320617265206120636f6c6c656374696f6e206f662070726f66696c652070603b8201527f696374757265204e46547320746861742061726520636f6d706c6574656c7920605b8201527f637573746f6d697a61626c652e20596f752063616e20667265656c79206d6f64607b8201527f69667920616e642075706461746520796f757220417661746172207573696e67609b8201527f2074686520644170702e2041747472696275746573206172652073746f72656460bb8201527f206f6e2d636861696e20616e64207468697320616d617a696e6720666c65786960db8201527f62696c69747920697320706f7765726564206279204549502d333636342e222c60fb82015269101134b6b0b3b2911d1160b11b61011b820152613643614d91614d8b614d6f610125850189614874565b6f222c2261747472696275746573223a5b60801b815260100190565b86614874565b615d7d60f01b815260020190565b7f646174613a6170706c69636174696f6e2f6a736f6e3b6261736536342c000000815260008251614dd781601d850160208701613e37565b91909101601d0192915050565b606081526000614df76060830186613e63565b8281036020840152614e098186613e63565b905082810360408401526136438185613e63565b6000600160ff1b821415614e3357614e33614479565b5060000390565b634e487b7160e01b600052603160045260246000fd5b600082614e5f57614e5f61484a565b500690565b60208082526032908201527f4552433732313a207472616e7366657220746f206e6f6e20455243373231526560408201527131b2b4bb32b91034b6b83632b6b2b73a32b960711b606082015260800190565b66697066733a2f2f60c81b815260008251614ed8816007850160208701613e37565b9190910160070192915050565b7f68747470733a2f2f65766572796461796176617461726170692e6865726f6b758152736170702e636f6d2f766965772d6176617461722f60601b602082015260008251614f3a816034850160208701613e37565b9190910160340192915050565b600081614f5657614f56614479565b506000190190565b60018060a01b038816815286602082015285604082015263ffffffff60e01b851660608201528360808201528260a082015260e060c08201526000614fa660e0830184613e63565b9998505050505050505050565b6001600160a01b038581168252841660208201526040810183905260806060820181905260009061364390830184613e63565b600060208284031215614ff857600080fd5b8151611ef581613ea2565b60018060a01b0384168152826020820152606060408201526000612f376060830184613e63565b60006020828403121561503c57600080fd5b8151611ef581614290565b6000611ef5838361477b56fe4142434445464748494a4b4c4d4e4f505152535455565758595a6162636465666768696a6b6c6d6e6f707172737475767778797a303132333435363738392b2fddf252ad1be2c89b69c2b068fc378daa952ba7f163c4a11628f55a4df523b3ef73b5fbfbf0177b0de2ffe9fd0ae9887dd73d0d865db7ab5ff3c4a6b9bb8db1e3a2646970667358221220be8f7f6ff40597b4f487a4b8d3e5d439756464c6f58ad4fd6b9dee213028b8b964736f6c634300080b0033",
  "linkReferences": {},
  "deployedLinkReferences": {}
}