{
  "_format": "hh-sol-artifact-1",
  "contractName": "EverydayAvatar",
  "sourceName": "contracts/EverydayAvatar.sol",
  "abi": [
    {
      "inputs": [
        {
          "internalType": "address",
          "name": "dataContract",
          "type": "address"
        }
      ],
      "stateMutability": "nonpayable",
      "type": "constructor"
    },
    {
      "anonymous": false,
      "inputs": [
        {
          "indexed": true,
          "internalType": "address",
          "name": "owner",
          "type": "address"
        },
        {
          "indexed": true,
          "internalType": "address",
          "name": "approved",
          "type": "address"
        },
        {
          "indexed": true,
          "internalType": "uint256",
          "name": "tokenId",
          "type": "uint256"
        }
      ],
      "name": "Approval",
      "type": "event"
    },
    {
      "anonymous": false,
      "inputs": [
        {
          "indexed": true,
          "internalType": "address",
          "name": "owner",
          "type": "address"
        },
        {
          "indexed": true,
          "internalType": "address",
          "name": "operator",
          "type": "address"
        },
        {
          "indexed": false,
          "internalType": "bool",
          "name": "approved",
          "type": "bool"
        }
      ],
      "name": "ApprovalForAll",
      "type": "event"
    },
    {
      "anonymous": false,
      "inputs": [
        {
          "indexed": true,
          "internalType": "uint256",
          "name": "attrId",
          "type": "uint256"
        },
        {
          "indexed": false,
          "internalType": "string",
          "name": "name",
          "type": "string"
        },
        {
          "indexed": false,
          "internalType": "string",
          "name": "symbol",
          "type": "string"
        },
        {
          "indexed": false,
          "internalType": "string",
          "name": "uri",
          "type": "string"
        }
      ],
      "name": "AttributeCreated",
      "type": "event"
    },
    {
      "anonymous": false,
      "inputs": [
        {
          "indexed": true,
          "internalType": "bytes32",
          "name": "id",
          "type": "bytes32"
        }
      ],
      "name": "ChainlinkCancelled",
      "type": "event"
    },
    {
      "anonymous": false,
      "inputs": [
        {
          "indexed": true,
          "internalType": "bytes32",
          "name": "id",
          "type": "bytes32"
        }
      ],
      "name": "ChainlinkFulfilled",
      "type": "event"
    },
    {
      "anonymous": false,
      "inputs": [
        {
          "indexed": true,
          "internalType": "bytes32",
          "name": "id",
          "type": "bytes32"
        }
      ],
      "name": "ChainlinkRequested",
      "type": "event"
    },
    {
      "anonymous": false,
      "inputs": [
        {
          "indexed": true,
          "internalType": "address",
          "name": "previousOwner",
          "type": "address"
        },
        {
          "indexed": true,
          "internalType": "address",
          "name": "newOwner",
          "type": "address"
        }
      ],
      "name": "OwnershipTransferred",
      "type": "event"
    },
    {
      "anonymous": false,
      "inputs": [
        {
          "indexed": true,
          "internalType": "bytes32",
          "name": "requestId",
          "type": "bytes32"
        },
        {
          "indexed": true,
          "internalType": "bytes",
          "name": "data",
          "type": "bytes"
        },
        {
          "indexed": true,
          "internalType": "uint256",
          "name": "tokenId",
          "type": "uint256"
        }
      ],
      "name": "RequestFulfilled",
      "type": "event"
    },
    {
      "anonymous": false,
      "inputs": [
        {
          "indexed": true,
          "internalType": "address",
          "name": "from",
          "type": "address"
        },
        {
          "indexed": true,
          "internalType": "address",
          "name": "to",
          "type": "address"
        },
        {
          "indexed": true,
          "internalType": "uint256",
          "name": "tokenId",
          "type": "uint256"
        }
      ],
      "name": "Transfer",
      "type": "event"
    },
    {
      "anonymous": false,
      "inputs": [
        {
          "indexed": true,
          "internalType": "address",
          "name": "operator",
          "type": "address"
        },
        {
          "indexed": false,
          "internalType": "uint256",
          "name": "from",
          "type": "uint256"
        },
        {
          "indexed": false,
          "internalType": "uint256",
          "name": "to",
          "type": "uint256"
        },
        {
          "indexed": true,
          "internalType": "uint256[]",
          "name": "attrIds",
          "type": "uint256[]"
        },
        {
          "indexed": false,
          "internalType": "uint256[]",
          "name": "values",
          "type": "uint256[]"
        }
      ],
      "name": "TransferBatch",
      "type": "event"
    },
    {
      "anonymous": false,
      "inputs": [
        {
          "indexed": true,
          "internalType": "address",
          "name": "operator",
          "type": "address"
        },
        {
          "indexed": false,
          "internalType": "uint256",
          "name": "from",
          "type": "uint256"
        },
        {
          "indexed": false,
          "internalType": "uint256",
          "name": "to",
          "type": "uint256"
        },
        {
          "indexed": true,
          "internalType": "uint256",
          "name": "attrId",
          "type": "uint256"
        },
        {
          "indexed": false,
          "internalType": "uint256",
          "name": "value",
          "type": "uint256"
        }
      ],
      "name": "TransferSingle",
      "type": "event"
    },
    {
      "inputs": [
        {
          "internalType": "address",
          "name": "to",
          "type": "address"
        },
        {
          "internalType": "uint256",
          "name": "tokenId",
          "type": "uint256"
        }
      ],
      "name": "approve",
      "outputs": [],
      "stateMutability": "nonpayable",
      "type": "function"
    },
    {
      "inputs": [
        {
          "internalType": "uint256",
          "name": "tokenId",
          "type": "uint256"
        },
        {
          "internalType": "uint256",
          "name": "attrId",
          "type": "uint256"
        },
        {
          "internalType": "uint256",
          "name": "amount",
          "type": "uint256"
        }
      ],
      "name": "attach",
      "outputs": [],
      "stateMutability": "nonpayable",
      "type": "function"
    },
    {
      "inputs": [
        {
          "internalType": "uint256",
          "name": "",
          "type": "uint256"
        },
        {
          "internalType": "uint256",
          "name": "",
          "type": "uint256"
        }
      ],
      "name": "attrBalances",
      "outputs": [
        {
          "internalType": "uint256",
          "name": "",
          "type": "uint256"
        }
      ],
      "stateMutability": "view",
      "type": "function"
    },
    {
      "inputs": [
        {
          "internalType": "uint256",
          "name": "attrId",
          "type": "uint256"
        }
      ],
      "name": "attrURI",
      "outputs": [
        {
          "internalType": "string",
          "name": "",
          "type": "string"
        }
      ],
      "stateMutability": "view",
      "type": "function"
    },
    {
      "inputs": [
        {
          "internalType": "uint256",
          "name": "tokenId",
          "type": "uint256"
        }
      ],
      "name": "attributesOf",
      "outputs": [
        {
          "internalType": "uint256[]",
          "name": "",
          "type": "uint256[]"
        }
      ],
      "stateMutability": "view",
      "type": "function"
    },
    {
      "inputs": [
        {
          "internalType": "uint256",
          "name": "",
          "type": "uint256"
        },
        {
          "internalType": "uint256",
          "name": "",
          "type": "uint256"
        }
      ],
      "name": "attrs",
      "outputs": [
        {
          "internalType": "uint256",
          "name": "",
          "type": "uint256"
        }
      ],
      "stateMutability": "view",
      "type": "function"
    },
    {
      "inputs": [
        {
          "internalType": "address",
          "name": "owner",
          "type": "address"
        }
      ],
      "name": "balanceOf",
      "outputs": [
        {
          "internalType": "uint256",
          "name": "",
          "type": "uint256"
        }
      ],
      "stateMutability": "view",
      "type": "function"
    },
    {
      "inputs": [
        {
          "internalType": "uint256",
          "name": "tokenId",
          "type": "uint256"
        },
        {
          "internalType": "uint256",
          "name": "attrId",
          "type": "uint256"
        }
      ],
      "name": "balanceOf",
      "outputs": [
        {
          "internalType": "uint256",
          "name": "",
          "type": "uint256"
        }
      ],
      "stateMutability": "view",
      "type": "function"
    },
    {
      "inputs": [
        {
          "internalType": "uint256",
          "name": "tokenId",
          "type": "uint256"
        },
        {
          "internalType": "uint256[]",
          "name": "attrIds",
          "type": "uint256[]"
        }
      ],
      "name": "balanceOfBatch",
      "outputs": [
        {
          "internalType": "uint256[]",
          "name": "",
          "type": "uint256[]"
        }
      ],
      "stateMutability": "view",
      "type": "function"
    },
    {
      "inputs": [
        {
          "internalType": "uint256",
          "name": "tokenId",
          "type": "uint256"
        },
        {
          "internalType": "uint256[]",
          "name": "attrIds",
          "type": "uint256[]"
        },
        {
          "internalType": "uint256[]",
          "name": "amounts",
          "type": "uint256[]"
        }
      ],
      "name": "batchAttach",
      "outputs": [],
      "stateMutability": "nonpayable",
      "type": "function"
    },
    {
      "inputs": [
        {
          "internalType": "uint256",
          "name": "tokenId",
          "type": "uint256"
        },
        {
          "internalType": "uint256",
          "name": "attrId",
          "type": "uint256"
        },
        {
          "internalType": "uint256",
          "name": "amount",
          "type": "uint256"
        }
      ],
      "name": "decrease",
      "outputs": [],
      "stateMutability": "nonpayable",
      "type": "function"
    },
    {
      "inputs": [
        {
          "internalType": "bytes32",
          "name": "requestId",
          "type": "bytes32"
        },
        {
          "internalType": "bytes",
          "name": "bytesData",
          "type": "bytes"
        }
      ],
      "name": "fulfillBytes",
      "outputs": [],
      "stateMutability": "nonpayable",
      "type": "function"
    },
    {
      "inputs": [
        {
          "internalType": "uint256",
          "name": "tokenId",
          "type": "uint256"
        }
      ],
      "name": "getApproved",
      "outputs": [
        {
          "internalType": "address",
          "name": "",
          "type": "address"
        }
      ],
      "stateMutability": "view",
      "type": "function"
    },
    {
      "inputs": [
        {
          "internalType": "uint256",
          "name": "tokenId",
          "type": "uint256"
        },
        {
          "internalType": "uint256",
          "name": "attrId",
          "type": "uint256"
        },
        {
          "internalType": "uint256",
          "name": "amount",
          "type": "uint256"
        }
      ],
      "name": "increase",
      "outputs": [],
      "stateMutability": "nonpayable",
      "type": "function"
    },
    {
      "inputs": [
        {
          "internalType": "address",
          "name": "owner",
          "type": "address"
        },
        {
          "internalType": "address",
          "name": "operator",
          "type": "address"
        }
      ],
      "name": "isApprovedForAll",
      "outputs": [
        {
          "internalType": "bool",
          "name": "",
          "type": "bool"
        }
      ],
      "stateMutability": "view",
      "type": "function"
    },
    {
      "inputs": [
        {
          "internalType": "address",
          "name": "to",
          "type": "address"
        },
        {
          "internalType": "uint256[]",
          "name": "attrId",
          "type": "uint256[]"
        },
        {
          "internalType": "uint256[]",
          "name": "attrValue",
          "type": "uint256[]"
        }
      ],
      "name": "mintAvatar",
      "outputs": [],
      "stateMutability": "payable",
      "type": "function"
    },
    {
      "inputs": [],
      "name": "mintFee",
      "outputs": [
        {
          "internalType": "uint256",
          "name": "",
          "type": "uint256"
        }
      ],
      "stateMutability": "view",
      "type": "function"
    },
    {
      "inputs": [
        {
          "internalType": "uint256",
          "name": "attrId",
          "type": "uint256"
        }
      ],
      "name": "name",
      "outputs": [
        {
          "internalType": "string",
          "name": "",
          "type": "string"
        }
      ],
      "stateMutability": "view",
      "type": "function"
    },
    {
      "inputs": [],
      "name": "name",
      "outputs": [
        {
          "internalType": "string",
          "name": "",
          "type": "string"
        }
      ],
      "stateMutability": "view",
      "type": "function"
    },
    {
      "inputs": [],
      "name": "owner",
      "outputs": [
        {
          "internalType": "address",
          "name": "",
          "type": "address"
        }
      ],
      "stateMutability": "view",
      "type": "function"
    },
    {
      "inputs": [
        {
          "internalType": "uint256",
          "name": "tokenId",
          "type": "uint256"
        }
      ],
      "name": "ownerOf",
      "outputs": [
        {
          "internalType": "address",
          "name": "",
          "type": "address"
        }
      ],
      "stateMutability": "view",
      "type": "function"
    },
    {
      "inputs": [
        {
          "internalType": "address payable",
          "name": "to",
          "type": "address"
        }
      ],
      "name": "ownerWithdraw",
      "outputs": [],
      "stateMutability": "nonpayable",
      "type": "function"
    },
    {
      "inputs": [
        {
          "internalType": "uint256",
          "name": "tokenId",
          "type": "uint256"
        }
      ],
      "name": "primaryAttributeOf",
      "outputs": [
        {
          "internalType": "uint256",
          "name": "",
          "type": "uint256"
        }
      ],
      "stateMutability": "view",
      "type": "function"
    },
    {
      "inputs": [
        {
          "internalType": "uint256",
          "name": "tokenId",
          "type": "uint256"
        },
        {
          "internalType": "uint256",
          "name": "attrId",
          "type": "uint256"
        }
      ],
      "name": "remove",
      "outputs": [],
      "stateMutability": "nonpayable",
      "type": "function"
    },
    {
      "inputs": [],
      "name": "renounceOwnership",
      "outputs": [],
      "stateMutability": "nonpayable",
      "type": "function"
    },
    {
      "inputs": [
        {
          "internalType": "uint256",
          "name": "tokenId",
          "type": "uint256"
        }
      ],
      "name": "requestNewImage",
      "outputs": [
        {
          "internalType": "bytes32",
          "name": "",
          "type": "bytes32"
        }
      ],
      "stateMutability": "nonpayable",
      "type": "function"
    },
    {
      "inputs": [
        {
          "internalType": "address",
          "name": "from",
          "type": "address"
        },
        {
          "internalType": "address",
          "name": "to",
          "type": "address"
        },
        {
          "internalType": "uint256",
          "name": "tokenId",
          "type": "uint256"
        }
      ],
      "name": "safeTransferFrom",
      "outputs": [],
      "stateMutability": "nonpayable",
      "type": "function"
    },
    {
      "inputs": [
        {
          "internalType": "address",
          "name": "from",
          "type": "address"
        },
        {
          "internalType": "address",
          "name": "to",
          "type": "address"
        },
        {
          "internalType": "uint256",
          "name": "tokenId",
          "type": "uint256"
        },
        {
          "internalType": "bytes",
          "name": "_data",
          "type": "bytes"
        }
      ],
      "name": "safeTransferFrom",
      "outputs": [],
      "stateMutability": "nonpayable",
      "type": "function"
    },
    {
      "inputs": [
        {
          "internalType": "address",
          "name": "operator",
          "type": "address"
        },
        {
          "internalType": "bool",
          "name": "approved",
          "type": "bool"
        }
      ],
      "name": "setApprovalForAll",
      "outputs": [],
      "stateMutability": "nonpayable",
      "type": "function"
    },
    {
      "inputs": [
        {
          "internalType": "uint256",
          "name": "tokenId",
          "type": "uint256"
        },
        {
          "internalType": "uint256",
          "name": "attrId",
          "type": "uint256"
        }
      ],
      "name": "setPrimaryAttribute",
      "outputs": [],
      "stateMutability": "nonpayable",
      "type": "function"
    },
    {
      "inputs": [
        {
          "internalType": "bytes4",
          "name": "interfaceId",
          "type": "bytes4"
        }
      ],
      "name": "supportsInterface",
      "outputs": [
        {
          "internalType": "bool",
          "name": "",
          "type": "bool"
        }
      ],
      "stateMutability": "view",
      "type": "function"
    },
    {
      "inputs": [
        {
          "internalType": "uint256",
          "name": "attrId",
          "type": "uint256"
        }
      ],
      "name": "symbol",
      "outputs": [
        {
          "internalType": "string",
          "name": "",
          "type": "string"
        }
      ],
      "stateMutability": "view",
      "type": "function"
    },
    {
      "inputs": [],
      "name": "symbol",
      "outputs": [
        {
          "internalType": "string",
          "name": "",
          "type": "string"
        }
      ],
      "stateMutability": "view",
      "type": "function"
    },
    {
      "inputs": [
        {
          "internalType": "uint256",
          "name": "tokenId",
          "type": "uint256"
        }
      ],
      "name": "tokenURI",
      "outputs": [
        {
          "internalType": "string",
          "name": "",
          "type": "string"
        }
      ],
      "stateMutability": "view",
      "type": "function"
    },
    {
      "inputs": [
        {
          "internalType": "address",
          "name": "from",
          "type": "address"
        },
        {
          "internalType": "address",
          "name": "to",
          "type": "address"
        },
        {
          "internalType": "uint256",
          "name": "tokenId",
          "type": "uint256"
        }
      ],
      "name": "transferFrom",
      "outputs": [],
      "stateMutability": "nonpayable",
      "type": "function"
    },
    {
      "inputs": [
        {
          "internalType": "address",
          "name": "newOwner",
          "type": "address"
        }
      ],
      "name": "transferOwnership",
      "outputs": [],
      "stateMutability": "nonpayable",
      "type": "function"
    },
    {
      "inputs": [
        {
          "internalType": "uint256",
          "name": "tokenId",
          "type": "uint256"
        },
        {
          "internalType": "uint256[]",
          "name": "attrId",
          "type": "uint256[]"
        },
        {
          "internalType": "uint256[]",
          "name": "attrValue",
          "type": "uint256[]"
        }
      ],
      "name": "updateAvatar",
      "outputs": [],
      "stateMutability": "nonpayable",
      "type": "function"
    },
    {
      "inputs": [],
      "name": "updateFee",
      "outputs": [],
      "stateMutability": "nonpayable",
      "type": "function"
    }
  ],
  "bytecode": "0x608060405260016011553480156200001657600080fd5b5060405162004e4d38038062004e4d833981016040819052620000399162000561565b604051806020016040528060008152506040518060400160405280600f81526020016e22bb32b93cb230bc9020bb30ba30b960891b81525060405180604001604052806002815260200161454160f01b8152508160009080519060200190620000a4929190620004bb565b508051620000ba906001906020840190620004bb565b505050620000ce81620002fd60201b60201c565b50620000da3362000316565b6200013f600160405180604001604052806002815260200161626760f01b8152506040518060400160405280600a815260200169109858dad9dc9bdd5b9960b21b815250604051806020016040528060008152506200036860201b62001dcf1760201c565b620001a06002604051806040016040528060048152602001631a19585960e21b815250604051806040016040528060048152602001631219585960e21b815250604051806020016040528060008152506200036860201b62001dcf1760201c565b620002016003604051806040016040528060048152602001636661636560e01b815250604051806040016040528060048152602001634661636560e01b815250604051806020016040528060008152506200036860201b62001dcf1760201c565b62000268600460405180604001604052806007815260200166636c6f7468657360c81b81525060405180604001604052806007815260200166436c6f7468657360c81b815250604051806020016040528060008152506200036860201b62001dcf1760201c565b678ac7230489e80000601655601480546001600160a01b03199081166001600160a01b038416179091556015805473d0d5e3db44de05e9f294bb0a3beeaf030de24ada908316179055600f805490911673326c977e6efc84e512bb9c30f76e30c160ed06fb179055601080546001600160a01b03191673edaa6962cf1368a92e244ddc11aac49c0a0acc371790555062000669565b805162000312906007906020840190620004bb565b5050565b600c80546001600160a01b038381166001600160a01b0319831681179093556040519116919082907f8be0079c531659141344cd1fd0a4f28419497f9722a3daafe3b4186f6b6457e090600090a35050565b60008481526008602052604090206003015460ff1615620003d95760405162461bcd60e51b815260206004820152602160248201527f455243333636343a2061747472696275746520616c72656164792065786973746044820152607360f81b606482015260840160405180910390fd5b604080516080810182528481526020808201859052818301849052600160608301526000878152600882529290922081518051929384936200041f9284920190620004bb565b5060208281015180516200043a9260018501920190620004bb565b506040820151805162000458916002840191602090910190620004bb565b50606091909101516003909101805460ff191691151591909117905560405185907fe3c3c9bbda1d6ccb059320eed92d395bd49272efb8a675a188a9d1b4e4da4ce290620004ac90879087908790620005e3565b60405180910390a25050505050565b828054620004c9906200062c565b90600052602060002090601f016020900481019282620004ed576000855562000538565b82601f106200050857805160ff191683800117855562000538565b8280016001018555821562000538579182015b82811115620005385782518255916020019190600101906200051b565b50620005469291506200054a565b5090565b5b808211156200054657600081556001016200054b565b6000602082840312156200057457600080fd5b81516001600160a01b03811681146200058c57600080fd5b9392505050565b6000815180845260005b81811015620005bb576020818501810151868301820152016200059d565b81811115620005ce576000602083870101525b50601f01601f19169290920160200192915050565b606081526000620005f8606083018662000593565b82810360208401526200060c818662000593565b9050828103604084015262000622818562000593565b9695505050505050565b600181811c908216806200064157607f821691505b602082108114156200066357634e487b7160e01b600052602260045260246000fd5b50919050565b6147d480620006796000396000f3fe6080604052600436106101b45760003560e01c8062ad800c146101b957806301ffc9a7146101ef57806306fdde031461021f578063081812fc1461023457806309363c441461026c578063095ea7b3146102995780631070717b146102bb578063132e09e3146102db57806313966db5146102fb578063169dbe6e1461031f578063173bb4061461033f57806323b872dd1461035257806342842e0e146103725780634682381a146103925780634e41a1fb146103b25780635d126110146103d25780636352211e146103f25780636526db7a146104125780636aab782f1461043257806370a0823114610452578063715018a614610472578063756cb82314610487578063758cdcf0146104a757806387e21d42146104bc5780638da5cb5b146104e957806395d89b41146104fe5780639bc5ae5414610513578063a22cb46514610533578063b4101dce14610553578063b88d4fde14610573578063c2fb852314610593578063c87b56dd146105b3578063e829ffa1146105d3578063e985e9c51461060b578063ea6996331461062b578063f2fde38b1461064b578063f8fb14fa1461066b578063f9bfaa7d1461068b575b600080fd5b3480156101c557600080fd5b506101d96101d436600461351a565b6106ab565b6040516101e6919061358b565b60405180910390f35b3480156101fb57600080fd5b5061020f61020a3660046135b4565b6107bb565b60405190151581526020016101e6565b34801561022b57600080fd5b506101d96107db565b34801561024057600080fd5b5061025461024f36600461351a565b61086d565b6040516001600160a01b0390911681526020016101e6565b34801561027857600080fd5b5061028c61028736600461351a565b6108f5565b6040516101e69190613601565b3480156102a557600080fd5b506102b96102b4366004613629565b610956565b005b3480156102c757600080fd5b506102b96102d6366004613655565b610a67565b3480156102e757600080fd5b506102b96102f63660046136c2565b610ae5565b34801561030757600080fd5b5061031160165481565b6040519081526020016101e6565b34801561032b57600080fd5b5061031161033a366004613655565b610d65565b6102b961034d36600461380f565b610d96565b34801561035e57600080fd5b506102b961036d366004613884565b610e1d565b34801561037e57600080fd5b506102b961038d366004613884565b610e4e565b34801561039e57600080fd5b506102b96103ad3660046138c5565b610e69565b3480156103be57600080fd5b506101d96103cd36600461351a565b610eca565b3480156103de57600080fd5b5061028c6103ed3660046138f8565b610f55565b3480156103fe57600080fd5b5061025461040d36600461351a565b611000565b34801561041e57600080fd5b506102b961042d366004613655565b611077565b34801561043e57600080fd5b5061031161044d36600461351a565b6111b6565b34801561045e57600080fd5b5061031161046d366004613943565b611246565b34801561047e57600080fd5b506102b96112cd565b34801561049357600080fd5b506102b96104a2366004613960565b611308565b3480156104b357600080fd5b506102b961140e565b3480156104c857600080fd5b506103116104d736600461351a565b6000908152600a602052604090205490565b3480156104f557600080fd5b50610254611526565b34801561050a57600080fd5b506101d9611535565b34801561051f57600080fd5b506101d961052e36600461351a565b611544565b34801561053f57600080fd5b506102b961054e36600461399a565b6116dc565b34801561055f57600080fd5b506102b961056e366004613960565b6116eb565b34801561057f57600080fd5b506102b961058e366004613a4b565b6117c6565b34801561059f57600080fd5b506102b96105ae366004613ab6565b6117f8565b3480156105bf57600080fd5b506101d96105ce36600461351a565b61192f565b3480156105df57600080fd5b506103116105ee366004613655565b600960209081526000928352604080842090915290825290205481565b34801561061757600080fd5b5061020f610626366004613afc565b611b4d565b34801561063757600080fd5b50610311610646366004613655565b611b7b565b34801561065757600080fd5b506102b9610666366004613943565b611b97565b34801561067757600080fd5b506102b9610686366004613960565b611c37565b34801561069757600080fd5b506102b96106a6366004613943565b611d6b565b60606106b682611f09565b61071d5760405162461bcd60e51b815260206004820152602d60248201527f455243333636343a206e616d6520717565727920666f72206e6f6e657869737460448201526c656e742061747472696275746560981b60648201526084015b60405180910390fd5b6000828152600860205260409020805461073690613b2a565b80601f016020809104026020016040519081016040528092919081815260200182805461076290613b2a565b80156107af5780601f10610784576101008083540402835291602001916107af565b820191906000526020600020905b81548152906001019060200180831161079257829003601f168201915b50505050509050919050565b60006107c682611f21565b806107d557506107d582611f71565b92915050565b6060600080546107ea90613b2a565b80601f016020809104026020016040519081016040528092919081815260200182805461081690613b2a565b80156108635780601f1061083857610100808354040283529160200191610863565b820191906000526020600020905b81548152906001019060200180831161084657829003601f168201915b5050505050905090565b600061087882611fb1565b6108d95760405162461bcd60e51b815260206004820152602c60248201527f4552433732313a20617070726f76656420717565727920666f72206e6f6e657860448201526b34b9ba32b73a103a37b5b2b760a11b6064820152608401610714565b506000908152600460205260409020546001600160a01b031690565b6000818152600b60209081526040918290208054835181840281018401909452808452606093928301828280156107af57602002820191906000526020600020905b8154815260200190600101908083116109375750505050509050919050565b600061096182611000565b9050806001600160a01b0316836001600160a01b031614156109cf5760405162461bcd60e51b815260206004820152602160248201527f4552433732313a20617070726f76616c20746f2063757272656e74206f776e656044820152603960f91b6064820152608401610714565b336001600160a01b03821614806109eb57506109eb8133611b4d565b610a585760405162461bcd60e51b815260206004820152603860248201527f4552433732313a20617070726f76652063616c6c6572206973206e6f74206f776044820152771b995c881b9bdc88185c1c1c9bdd995908199bdc88185b1b60421b6064820152608401610714565b610a628383611fce565b505050565b610a71828261203c565b610ad35760405162461bcd60e51b815260206004820152602d60248201527f455243333636343a20746f6b656e20686173206e6f742061747461636865642060448201526c7468652061747472696275746560981b6064820152608401610714565b6000918252600a602052604090912055565b6000339050610b698160008888888080602002602001604051908101604052809392919081815260200183836020028082843760009201919091525050604080516020808c0282810182019093528b82529093508b92508a91829185019084908082843760009201829052506040805160208101909152908152925061205a915050565b60005b84811015610cfc57610b95868683818110610b8957610b89613b5f565b90506020020135611f09565b610bf85760405162461bcd60e51b815260206004820152602e60248201527f455243333636343a20626174636841747461636820666f72206e6f6e6578697360448201526d74656e742061747472696275746560901b6064820152608401610714565b60096000878784818110610c0e57610c0e613b5f565b90506020020135815260200190815260200160002060008881526020019081526020016000205460001415610c80576000878152600b60205260409020868683818110610c5d57610c5d613b5f565b835460018101855560009485526020948590209190940292909201359190920155505b838382818110610c9257610c92613b5f565b9050602002013560096000888885818110610caf57610caf613b5f565b90506020020135815260200190815260200160002060008981526020019081526020016000206000828254610ce49190613b8b565b90915550819050610cf481613ba3565b915050610b6c565b508484604051610d0d929190613bbe565b6040518091039020816001600160a01b03167fbfb4d8e5891aebe97980c97616b6b0af2006a58ccabe6e1b7e3da24d0906a8566000898787604051610d559493929190613bea565b60405180910390a3505050505050565b600b6020528160005260406000208181548110610d8157600080fd5b90600052602060002001600091509150505481565b6000610da160135490565b9050610db1601380546001019055565b610dbb8482612062565b60005b8351811015610e1657610e0482858381518110610ddd57610ddd613b5f565b6020026020010151858481518110610df757610df7613b5f565b60200260200101516116eb565b80610e0e81613ba3565b915050610dbe565b5050505050565b610e27338261207c565b610e435760405162461bcd60e51b815260040161071490613c36565b610a62838383612146565b610a62838383604051806020016040528060008152506117c6565b60005b8251811015610ec457610eb284848381518110610e8b57610e8b613b5f565b6020026020010151848481518110610ea557610ea5613b5f565b60200260200101516122d0565b80610ebc81613ba3565b915050610e6c565b50505050565b6060610ed582611f09565b610f395760405162461bcd60e51b815260206004820152602f60248201527f455243333636343a2073796d626f6c20717565727920666f72206e6f6e65786960448201526e7374656e742061747472696275746560881b6064820152608401610714565b6000828152600860205260409020600101805461073690613b2a565b60606000826001600160401b03811115610f7157610f7161373b565b604051908082528060200260200182016040528015610f9a578160200160208202803683370190505b50905060005b83811015610ff757610fca86868684818110610fbe57610fbe613b5f565b90506020020135611b7b565b828281518110610fdc57610fdc613b5f565b6020908102919091010152610ff081613ba3565b9050610fa0565b50949350505050565b6000818152600260205260408120546001600160a01b0316806107d55760405162461bcd60e51b815260206004820152602960248201527f4552433732313a206f776e657220717565727920666f72206e6f6e657869737460448201526832b73a103a37b5b2b760b91b6064820152608401610714565b61108081611f09565b6110e75760405162461bcd60e51b815260206004820152603260248201527f45524333363634557064617461626c653a2072656d6f766520666f72206e6f6e6044820152716578697374656e742061747472696275746560701b6064820152608401610714565b60008181526009602090815260408083208584529091529020548061111e5760405162461bcd60e51b815260040161071490613c87565b3361114e8185600061112f8761236e565b6111388761236e565b5050604080516020810190915260009052505050565b60008381526009602090815260408083208784528252808320839055600b909152902061117b90846123b9565b82816001600160a01b031660008051602061477f833981519152866000866040516111a893929190613cdd565b60405180910390a350505050565b60007f303465396638663665346538343139653839643864393432353636656639363381806111ed833063c2fb852360e01b612413565b905061121e604051806040016040528060028152602001611a5960f21b81525061121687612438565b83919061249d565b600061122a82846124bb565b6000818152601760205260409020969096555093949350505050565b60006001600160a01b0382166112b15760405162461bcd60e51b815260206004820152602a60248201527f4552433732313a2062616c616e636520717565727920666f7220746865207a65604482015269726f206164647265737360b01b6064820152608401610714565b506001600160a01b031660009081526003602052604090205490565b336112d6611526565b6001600160a01b0316146112fc5760405162461bcd60e51b815260040161071490613cf3565b61130660006124d5565b565b61131182611f09565b61137a5760405162461bcd60e51b815260206004820152603460248201527f45524333363634557064617461626c653a20696e63726561736520666f72206e6044820152736f6e6578697374656e742061747472696275746560601b6064820152608401610714565b611384838361203c565b6113a05760405162461bcd60e51b815260040161071490613c87565b336113b18160008661112f8761236e565b6000838152600960209081526040808320878452909152812080548492906113da908490613b8b565b9250508190555082816001600160a01b031660008051602061477f833981519152600087866040516111a893929190613cdd565b60155460408051633fabe5a360e21b815290516000926001600160a01b03169163feaf968c9160048083019260a09291908290030181865afa158015611458573d6000803e3d6000fd5b505050506040513d601f19601f8201168201806040525081019061147c9190613d44565b50506015546040805163313ce56760e01b815290519395506001600160a01b03909116935063313ce56792600480830193506020928290030181865afa1580156114ca573d6000803e3d6000fd5b505050506040513d601f19601f820116820180604052508101906114ee9190613d94565b6114f9906012613db7565b61150490600a613ebe565b61150e9082613ecd565b61152090678ac7230489e80000613f02565b60165550565b600c546001600160a01b031690565b6060600180546107ea90613b2a565b606061154f82611f09565b6115b05760405162461bcd60e51b815260206004820152602c60248201527f455243333636343a2055524920717565727920666f72206e6f6e65786973746560448201526b6e742061747472696275746560a01b6064820152608401610714565b600082815260086020526040812060020180546115cc90613b2a565b80601f01602080910402602001604051908101604052809291908181526020018280546115f890613b2a565b80156116455780601f1061161a57610100808354040283529160200191611645565b820191906000526020600020905b81548152906001019060200180831161162857829003601f168201915b50505050509050600081511115611688578061166084612527565b604051602001611671929190613f32565b604051602081830303815290604052915050919050565b60006007805461169790613b2a565b9050116116b357604051806020016040528060008152506116cf565b60076116be84612527565b604051602001611671929190613f61565b9392505050565b50919050565b6116e7338383612624565b5050565b6116f482611f09565b6117525760405162461bcd60e51b815260206004820152602960248201527f455243333636343a2061747461636820666f72206e6f6e6578697374656e742060448201526861747472696275746560b81b6064820152608401610714565b336117638160008661112f8761236e565b60008381526009602090815260408083208784529091529020546113b1576000848152600b6020908152604080832080546001810182559084528284200186905585835260098252808320878452909152812080548492906113da908490613b8b565b6117d0338361207c565b6117ec5760405162461bcd60e51b815260040161071490613c36565b610ec4848484846126ef565b60008281526012602052604090205482906001600160a01b031633146118715760405162461bcd60e51b815260206004820152602860248201527f536f75726365206d75737420626520746865206f7261636c65206f6620746865604482015267081c995c5d595cdd60c21b6064820152608401610714565b60008181526012602052604080822080546001600160a01b03191690555182917f7cc135e0cebb02c3480ae5d74d377283180a2601f8f644edf7987b009316c63a91a26000838152601760205260409081902054905181906118d4908590613fff565b6040519081900381209086907f512a96f491db671df927458839af34af4b802de45106bdd3f7d5c56da24396da90600090a4610ec4818460405160200161191b919061401b565b604051602081830303815290604052612722565b6060600061193c836108f5565b6040516305d1261160e41b81529091506000903090635d12611090611967908790869060040161404a565b600060405180830381865afa158015611984573d6000803e3d6000fd5b505050506040513d6000823e601f3d908101601f191682016040526119ac9190810190614063565b6014546040516321c3255560e01b81529192506060916000916001600160a01b0316906321c32555906119e3908690600401613601565b600060405180830381865afa158015611a00573d6000803e3d6000fd5b505050506040513d6000823e601f3d908101601f19168201604052611a2891908101906140f3565b905060005b8451811015611ae05782611a59868381518110611a4c57611a4c613b5f565b6020026020010151610eca565b838381518110611a6b57611a6b613b5f565b6020026020010151604051602001611a85939291906141df565b604051602081830303815290604052925060018551611aa49190614265565b811015611ace5782604051602001611abc919061427c565b60405160208183030381529060405292505b80611ad881613ba3565b915050611a2d565b506000611b1f611aef88612527565b611af8896127ad565b85604051602001611b0b939291906142a1565b604051602081830303815290604052612800565b905080604051602001611b329190614470565b60405160208183030381529060405295505050505050919050565b6001600160a01b03918216600090815260056020908152604080832093909416825291909152205460ff1690565b6000908152600960209081526040808320938352929052205490565b33611ba0611526565b6001600160a01b031614611bc65760405162461bcd60e51b815260040161071490613cf3565b6001600160a01b038116611c2b5760405162461bcd60e51b815260206004820152602660248201527f4f776e61626c653a206e6577206f776e657220697320746865207a65726f206160448201526564647265737360d01b6064820152608401610714565b611c34816124d5565b50565b611c4082611f09565b611ca95760405162461bcd60e51b815260206004820152603460248201527f45524333363634557064617461626c653a20646563726561736520666f72206e6044820152736f6e6578697374656e742061747472696275746560601b6064820152608401610714565b611cb3838361203c565b611ccf5760405162461bcd60e51b815260040161071490613c87565b33611ce08185600061112f8761236e565b600083815260096020908152604080832087845290915290205482811015611d0757600080fd5b611d118382614265565b600085815260096020908152604080832089845290915280822092909255905185916001600160a01b0385169160008051602061477f83398151915291611d5c918a91908990613cdd565b60405180910390a35050505050565b33611d74611526565b6001600160a01b031614611d9a5760405162461bcd60e51b815260040161071490613cf3565b6040516001600160a01b038216904780156108fc02916000818181858888f193505050501580156116e7573d6000803e3d6000fd5b611dd884611f09565b15611e2f5760405162461bcd60e51b815260206004820152602160248201527f455243333636343a2061747472696275746520616c72656164792065786973746044820152607360f81b6064820152608401610714565b60408051608081018252848152602080820185905281830184905260016060830152600087815260088252929092208151805192938493611e739284920190613436565b506020828101518051611e8c9260018501920190613436565b5060408201518051611ea8916002840191602090910190613436565b50606091909101516003909101805460ff191691151591909117905560405185907fe3c3c9bbda1d6ccb059320eed92d395bd49272efb8a675a188a9d1b4e4da4ce290611efa908790879087906144b5565b60405180910390a25050505050565b60009081526008602052604090206003015460ff1690565b60006001600160e01b031982166380ac58cd60e01b1480611f5257506001600160e01b03198216635b5e139f60e01b145b806107d557506301ffc9a760e01b6001600160e01b03198316146107d5565b60006001600160e01b03198216638ee1b37360e01b1480611fa257506001600160e01b0319821663d5298fa360e01b145b806107d557506107d582611f21565b6000908152600260205260409020546001600160a01b0316151590565b600081815260046020526040902080546001600160a01b0319166001600160a01b038416908117909155819061200382611000565b6001600160a01b03167f8c5be1e5ebec7d5bd14f71427d1e84f3dd0314c0f7b2291e5b200ac8c7c3b92560405160405180910390a45050565b60009081526009602090815260408083209383529290522054151590565b505050505050565b6116e7828260405180602001604052806000815250612953565b600061208782611fb1565b6120e85760405162461bcd60e51b815260206004820152602c60248201527f4552433732313a206f70657261746f7220717565727920666f72206e6f6e657860448201526b34b9ba32b73a103a37b5b2b760a11b6064820152608401610714565b60006120f383611000565b9050806001600160a01b0316846001600160a01b0316148061212e5750836001600160a01b03166121238461086d565b6001600160a01b0316145b8061213e575061213e8185611b4d565b949350505050565b826001600160a01b031661215982611000565b6001600160a01b0316146121bd5760405162461bcd60e51b815260206004820152602560248201527f4552433732313a207472616e736665722066726f6d20696e636f72726563742060448201526437bbb732b960d91b6064820152608401610714565b6001600160a01b03821661221f5760405162461bcd60e51b8152602060048201526024808201527f4552433732313a207472616e7366657220746f20746865207a65726f206164646044820152637265737360e01b6064820152608401610714565b61222a600082611fce565b6001600160a01b0383166000908152600360205260408120805460019290612253908490614265565b90915550506001600160a01b0382166000908152600360205260408120805460019290612281908490613b8b565b909155505060008181526002602052604080822080546001600160a01b0319166001600160a01b03868116918217909255915184939187169160008051602061475f83398151915291a4505050565b6000828152600960209081526040808320868452909152812054906122f583836144ee565b9050806123445760405162461bcd60e51b815260206004820181905260248201527f4174747269627574652076616c756520686173206e6f74206368616e6765642e6044820152606401610714565b60008113156123605761235b858561068684612986565b610e16565b610e1685856104a284612986565b604080516001808252818301909252606091600091906020808301908036833701905050905082816000815181106123a8576123a8613b5f565b602090810291909101015292915050565b60005b818382815481106123cf576123cf613b5f565b9060005260206000200154146123f157806123e981613ba3565b9150506123bc565b82818154811061240357612403613b5f565b6000918252602082200155505050565b61241b6134b6565b6124236134b6565b61242f818686866129a2565b95945050505050565b60608060005b6004811015612496578161246161245a86610646856001613b8b565b60046129df565b604051602001612472929190613f32565b6040516020818303038152906040529150808061248e90613ba3565b91505061243e565b5092915050565b60808301516124ac9083612aa1565b6080830151610a629082612aa1565b6010546000906116cf906001600160a01b03168484612ab8565b600c80546001600160a01b038381166001600160a01b0319831681179093556040519116919082907f8be0079c531659141344cd1fd0a4f28419497f9722a3daafe3b4186f6b6457e090600090a35050565b60608161254b5750506040805180820190915260018152600360fc1b602082015290565b8160005b8115612575578061255f81613ba3565b915061256e9050600a83613f02565b915061254f565b6000816001600160401b0381111561258f5761258f61373b565b6040519080825280601f01601f1916602001820160405280156125b9576020820181803683370190505b5090505b841561213e576125ce600183614265565b91506125db600a8661452d565b6125e6906030613b8b565b60f81b8183815181106125fb576125fb613b5f565b60200101906001600160f81b031916908160001a90535061261d600a86613f02565b94506125bd565b816001600160a01b0316836001600160a01b031614156126825760405162461bcd60e51b815260206004820152601960248201527822a9219b99189d1030b8383937bb32903a379031b0b63632b960391b6044820152606401610714565b6001600160a01b03838116600081815260056020908152604080832094871680845294825291829020805460ff191686151590811790915591519182527f17307eab39ab6107e8899845ad3d59bd9653f200f220920489ca2b5937696c31910160405180910390a3505050565b6126fa848484612146565b61270684848484612b49565b610ec45760405162461bcd60e51b815260040161071490614541565b61272b82611fb1565b61278e5760405162461bcd60e51b815260206004820152602e60248201527f45524337323155524953746f726167653a2055524920736574206f66206e6f6e60448201526d32bc34b9ba32b73a103a37b5b2b760911b6064820152608401610714565b60008281526006602090815260409091208251610a6292840190613436565b606060006127ba83612c44565b8051909150156127ca5792915050565b60006127d584612438565b9050806040516020016127e89190614593565b60405160208183030381529060405292505050919050565b606081516000141561282057505060408051602081019091526000815290565b600060405180606001604052806040815260200161471f604091399050600060038451600261284f9190613b8b565b6128599190613f02565b612864906004613ecd565b6001600160401b0381111561287b5761287b61373b565b6040519080825280601f01601f1916602001820160405280156128a5576020820181803683370190505b509050600182016020820185865187015b80821015612911576003820191508151603f8160121c168501518453600184019350603f81600c1c168501518453600184019350603f8160061c168501518453600184019350603f81168501518453506001830192506128b6565b505060038651066001811461292d576002811461294057612948565b603d6001830353603d6002830353612948565b603d60018303535b509195945050505050565b61295d8383612d9b565b61296a6000848484612b49565b610a625760405162461bcd60e51b815260040161071490614541565b60008082121561299e57612999826145f5565b6107d5565b5090565b6129aa6134b6565b6129ba8560800151610100612ebb565b50509183526001600160a01b031660208301526001600160e01b031916604082015290565b60606000826001600160401b038111156129fb576129fb61373b565b6040519080825280601f01601f191660200182016040528015612a25576020820181803683370190505b509050825b8015612a9957612a3b600a8661452d565b612a46906030613b8b565b60f81b82612a55600184614265565b81518110612a6557612a65613b5f565b60200101906001600160f81b031916908160001a905350612a87600a86613f02565b9450612a9281614612565b9050612a2a565b509392505050565b612aae8260038351612f13565b610a62828261301a565b601154600090612ac9816001613b8b565b60115583516040808601516080870151519151600093633c6d41b960e01b93612aff938693849392899160029190602401614629565b60408051601f198184030181529190526020810180516001600160e01b03166001600160e01b0319909316929092179091529050612b3f86838684613034565b9695505050505050565b60006001600160a01b0384163b15612c3c57604051630a85bd0160e11b81526001600160a01b0385169063150b7a0290612b8d90339089908890889060040161467e565b6020604051808303816000875af1925050508015612bc8575060408051601f3d908101601f19168201909252612bc5918101906146b1565b60015b612c22573d808015612bf6576040519150601f19603f3d011682016040523d82523d6000602084013e612bfb565b606091505b508051612c1a5760405162461bcd60e51b815260040161071490614541565b805181602001fd5b6001600160e01b031916630a85bd0160e11b14905061213e565b50600161213e565b6060612c4f82611fb1565b612cb55760405162461bcd60e51b815260206004820152603160248201527f45524337323155524953746f726167653a2055524920717565727920666f72206044820152703737b732bc34b9ba32b73a103a37b5b2b760791b6064820152608401610714565b60008281526006602052604081208054612cce90613b2a565b80601f0160208091040260200160405190810160405280929190818152602001828054612cfa90613b2a565b8015612d475780601f10612d1c57610100808354040283529160200191612d47565b820191906000526020600020905b815481529060010190602001808311612d2a57829003601f168201915b505050505090506000612d6560408051602081019091526000815290565b9050805160001415612d78575092915050565b815115612d925780826040516020016127e8929190613f32565b61213e8461318d565b6001600160a01b038216612df15760405162461bcd60e51b815260206004820181905260248201527f4552433732313a206d696e7420746f20746865207a65726f20616464726573736044820152606401610714565b612dfa81611fb1565b15612e465760405162461bcd60e51b815260206004820152601c60248201527b115490cdcc8c4e881d1bdad95b88185b1c9958591e481b5a5b9d195960221b6044820152606401610714565b6001600160a01b0382166000908152600360205260408120805460019290612e6f908490613b8b565b909155505060008181526002602052604080822080546001600160a01b0319166001600160a01b038616908117909155905183929060008051602061475f833981519152908290a45050565b612ec36134eb565b612ece60208361452d565b15612ef657612ede60208361452d565b612ee9906020614265565b612ef39083613b8b565b91505b506020828101829052604080518085526000815290920101905290565b6017816001600160401b031611612f3757610ec48360e0600585901b16831761323d565b60ff816001600160401b031611612f7357612f5d836018611fe0600586901b161761323d565b50610ec4836001600160401b0383166001613255565b61ffff816001600160401b031611612fb057612f9a836019611fe0600586901b161761323d565b50610ec4836001600160401b0383166002613255565b63ffffffff816001600160401b031611612fef57612fd983601a611fe0600586901b161761323d565b50610ec4836001600160401b0383166004613255565b61300483601b611fe0600586901b161761323d565b50610ec4836001600160401b0383166008613255565b6130226134eb565b6116cf8384600001515184855161326e565b6040516001600160601b03193060601b1660208201526034810184905260009060540160408051808303601f1901815282825280516020918201206000818152601290925291812080546001600160a01b0319166001600160a01b038a1617905590925082917fb5e6e01e79f91267dc17b4e6314d5d4d03593d2ceee0fbb452b750bd70ea5af99190a2600f54604051630200057560e51b81526001600160a01b0390911690634000aea0906130f2908890879087906004016146ce565b6020604051808303816000875af1158015613111573d6000803e3d6000fd5b505050506040513d601f19601f8201168201806040525081019061313591906146f5565b61213e5760405162461bcd60e51b815260206004820152602360248201527f756e61626c6520746f207472616e73666572416e6443616c6c20746f206f7261604482015262636c6560e81b6064820152608401610714565b606061319882611fb1565b6131fc5760405162461bcd60e51b815260206004820152602f60248201527f4552433732314d657461646174613a2055524920717565727920666f72206e6f60448201526e3732bc34b9ba32b73a103a37b5b2b760891b6064820152608401610714565b600061321360408051602081019091526000815290565b9050600081511161323357604051806020016040528060008152506116cf565b8061166084612527565b6132456134eb565b6116cf838460000151518461334b565b61325d6134eb565b61213e84856000015151858561339a565b6132766134eb565b825182111561328457600080fd5b60208501516132938386613b8b565b11156132c6576132c6856132b6876020015187866132b19190613b8b565b61340e565b6132c1906002613ecd565b61341f565b6000808651805187602083010193508088870111156132e55787860182525b505050602084015b602084106133255780518252613304602083613b8b565b9150613311602082613b8b565b905061331e602085614265565b93506132ed565b51815160001960208690036101000a019081169019919091161790525083949350505050565b6133536134eb565b836020015183106133735761337384856020015160026132c19190613ecd565b835180516020858301018481535080851415613390576001810182525b5093949350505050565b6133a26134eb565b60208501516133b18584613b8b565b11156133c5576133c5856132b68685613b8b565b600060016133d584610100614712565b6133df9190614265565b90508551838682010185831982511617815250805184870111156134035783860181525b509495945050505050565b6000818311156116d65750816107d5565b815161342b8383612ebb565b50610ec4838261301a565b82805461344290613b2a565b90600052602060002090601f01602090048101928261346457600085556134aa565b82601f1061347d57805160ff19168380011785556134aa565b828001600101855582156134aa579182015b828111156134aa57825182559160200191906001019061348f565b5061299e929150613505565b6040805160a0810182526000808252602082018190529181018290526060810191909152608081016134e66134eb565b905290565b604051806040016040528060608152602001600081525090565b5b8082111561299e5760008155600101613506565b60006020828403121561352c57600080fd5b5035919050565b60005b8381101561354e578181015183820152602001613536565b83811115610ec45750506000910152565b60008151808452613577816020860160208601613533565b601f01601f19169290920160200192915050565b6020815260006116cf602083018461355f565b6001600160e01b031981168114611c3457600080fd5b6000602082840312156135c657600080fd5b81356116cf8161359e565b600081518084526020808501945080840160005b83811015613403578151875295820195908201906001016135e5565b6020815260006116cf60208301846135d1565b6001600160a01b0381168114611c3457600080fd5b6000806040838503121561363c57600080fd5b823561364781613614565b946020939093013593505050565b6000806040838503121561366857600080fd5b50508035926020909101359150565b60008083601f84011261368957600080fd5b5081356001600160401b038111156136a057600080fd5b6020830191508360208260051b85010111156136bb57600080fd5b9250929050565b6000806000806000606086880312156136da57600080fd5b8535945060208601356001600160401b03808211156136f857600080fd5b61370489838a01613677565b9096509450604088013591508082111561371d57600080fd5b5061372a88828901613677565b969995985093965092949392505050565b634e487b7160e01b600052604160045260246000fd5b604051601f8201601f191681016001600160401b03811182821017156137795761377961373b565b604052919050565b60006001600160401b0382111561379a5761379a61373b565b5060051b60200190565b600082601f8301126137b557600080fd5b813560206137ca6137c583613781565b613751565b82815260059290921b840181019181810190868411156137e957600080fd5b8286015b8481101561380457803583529183019183016137ed565b509695505050505050565b60008060006060848603121561382457600080fd5b833561382f81613614565b925060208401356001600160401b038082111561384b57600080fd5b613857878388016137a4565b9350604086013591508082111561386d57600080fd5b5061387a868287016137a4565b9150509250925092565b60008060006060848603121561389957600080fd5b83356138a481613614565b925060208401356138b481613614565b929592945050506040919091013590565b6000806000606084860312156138da57600080fd5b8335925060208401356001600160401b038082111561384b57600080fd5b60008060006040848603121561390d57600080fd5b8335925060208401356001600160401b0381111561392a57600080fd5b61393686828701613677565b9497909650939450505050565b60006020828403121561395557600080fd5b81356116cf81613614565b60008060006060848603121561397557600080fd5b505081359360208301359350604090920135919050565b8015158114611c3457600080fd5b600080604083850312156139ad57600080fd5b82356139b881613614565b915060208301356139c88161398c565b809150509250929050565b60006001600160401b038211156139ec576139ec61373b565b50601f01601f191660200190565b600082601f830112613a0b57600080fd5b8135613a196137c5826139d3565b818152846020838601011115613a2e57600080fd5b816020850160208301376000918101602001919091529392505050565b60008060008060808587031215613a6157600080fd5b8435613a6c81613614565b93506020850135613a7c81613614565b92506040850135915060608501356001600160401b03811115613a9e57600080fd5b613aaa878288016139fa565b91505092959194509250565b60008060408385031215613ac957600080fd5b8235915060208301356001600160401b03811115613ae657600080fd5b613af2858286016139fa565b9150509250929050565b60008060408385031215613b0f57600080fd5b8235613b1a81613614565b915060208301356139c881613614565b600181811c90821680613b3e57607f821691505b602082108114156116d657634e487b7160e01b600052602260045260246000fd5b634e487b7160e01b600052603260045260246000fd5b634e487b7160e01b600052601160045260246000fd5b60008219821115613b9e57613b9e613b75565b500190565b6000600019821415613bb757613bb7613b75565b5060010190565b60006001600160fb1b03831115613bd457600080fd5b8260051b80858437600092019182525092915050565b84815260208101849052606060408201819052810182905260006001600160fb1b03831115613c1857600080fd5b8260051b808560808501376000920160800191825250949350505050565b60208082526031908201527f4552433732313a207472616e736665722063616c6c6572206973206e6f74206f6040820152701ddb995c881b9bdc88185c1c1c9bdd9959607a1b606082015260800190565b60208082526036908201527f45524333363634557064617461626c653a20746f6b656e20686173206e6f74206040820152756174746163686564207468652061747472696275746560501b606082015260800190565b9283526020830191909152604082015260600190565b6020808252818101527f4f776e61626c653a2063616c6c6572206973206e6f7420746865206f776e6572604082015260600190565b80516001600160501b0381168114613d3f57600080fd5b919050565b600080600080600060a08688031215613d5c57600080fd5b613d6586613d28565b9450602086015193506040860151925060608601519150613d8860808701613d28565b90509295509295909350565b600060208284031215613da657600080fd5b815160ff811681146116cf57600080fd5b600060ff821660ff841680821015613dd157613dd1613b75565b90039392505050565b600181815b80851115613e15578160001904821115613dfb57613dfb613b75565b80851615613e0857918102915b93841c9390800290613ddf565b509250929050565b600082613e2c575060016107d5565b81613e39575060006107d5565b8160018114613e4f5760028114613e5957613e75565b60019150506107d5565b60ff841115613e6a57613e6a613b75565b50506001821b6107d5565b5060208310610133831016604e8410600b8410161715613e98575081810a6107d5565b613ea28383613dda565b8060001904821115613eb657613eb6613b75565b029392505050565b60006116cf60ff841683613e1d565b6000816000190483118215151615613ee757613ee7613b75565b500290565b634e487b7160e01b600052601260045260246000fd5b600082613f1157613f11613eec565b500490565b60008151613f28818560208601613533565b9290920192915050565b60008351613f44818460208801613533565b835190830190613f58818360208801613533565b01949350505050565b600080845481600182811c915080831680613f7d57607f831692505b6020808410821415613f9d57634e487b7160e01b86526022600452602486fd5b818015613fb15760018114613fc257613fef565b60ff19861689528489019650613fef565b60008b81526020902060005b86811015613fe75781548b820152908501908301613fce565b505084890196505b50505050505061242f8185613f16565b60008251614011818460208701613533565b9190910192915050565b66697066733a2f2f60c81b81526000825161403d816007850160208701613533565b9190910160070192915050565b82815260406020820152600061213e60408301846135d1565b6000602080838503121561407657600080fd5b82516001600160401b0381111561408c57600080fd5b8301601f8101851361409d57600080fd5b80516140ab6137c582613781565b81815260059190911b820183019083810190878311156140ca57600080fd5b928401925b828410156140e8578351825292840192908401906140cf565b979650505050505050565b6000602080838503121561410657600080fd5b82516001600160401b038082111561411d57600080fd5b818501915085601f83011261413157600080fd5b815161413f6137c582613781565b81815260059190911b8301840190848101908883111561415e57600080fd5b8585015b838110156141d25780518581111561417a5760008081fd5b8601603f81018b1361418c5760008081fd5b87810151604061419e6137c5836139d3565b8281528d828486010111156141b35760008081fd5b6141c2838c8301848701613533565b8652505050918601918601614162565b5098975050505050505050565b600084516141f1818460208901613533565b6e3d913a3930b4ba2fba3cb832911d1160891b908301908152845161421d81600f840160208901613533565b6a1116113b30b63ab2911d1160a91b600f9290910191820152835161424981601a840160208801613533565b61227d60f01b601a9290910191820152601c0195945050505050565b60008282101561427757614277613b75565b500390565b6000825161428e818460208701613533565b600b60fa1b920191825250600101919050565b783d913730b6b2911d101122bb32b93cb230bc9020bb30ba30b960391b815261202360f01b601982015283516000906142e181601b850160208901613533565b7f222c20226465736372697074696f6e223a224576657279646179204176617461601b918401918201527f727320617265206120636f6c6c656374696f6e206f662070726f66696c652070603b8201527f696374757265204e46547320746861742061726520636f6d706c6574656c7920605b8201527f637573746f6d697a61626c652e20596f752063616e20667265656c79206d6f64607b8201527f69667920616e642075706461746520796f757220417661746172207573696e67609b8201527f2074686520644170702e2041747472696275746573206172652073746f72656460bb8201527f206f6e2d636861696e20616e64207468697320616d617a696e6720666c65786960db8201527f62696c69747920697320706f7765726564206279204549502d333636342e222c60fb82015269101134b6b0b3b2911d1160b11b61011b820152612b3f61446261445c614440610125850189613f16565b6f222c2261747472696275746573223a5b60801b815260100190565b86613f16565b615d7d60f01b815260020190565b7f646174613a6170706c69636174696f6e2f6a736f6e3b6261736536342c0000008152600082516144a881601d850160208701613533565b91909101601d0192915050565b6060815260006144c8606083018661355f565b82810360208401526144da818661355f565b90508281036040840152612b3f818561355f565b60008083128015600160ff1b85018412161561450c5761450c613b75565b6001600160ff1b038401831381161561452757614527613b75565b50500390565b60008261453c5761453c613eec565b500690565b60208082526032908201527f4552433732313a207472616e7366657220746f206e6f6e20455243373231526560408201527131b2b4bb32b91034b6b83632b6b2b73a32b960711b606082015260800190565b7f68747470733a2f2f65766572796461796176617461726170692e6865726f6b758152736170702e636f6d2f766965772d6176617461722f60601b6020820152600082516145e8816034850160208701613533565b9190910160340192915050565b6000600160ff1b82141561460b5761460b613b75565b5060000390565b60008161462157614621613b75565b506000190190565b60018060a01b038816815286602082015285604082015263ffffffff60e01b851660608201528360808201528260a082015260e060c0820152600061467160e083018461355f565b9998505050505050505050565b6001600160a01b0385811682528416602082015260408101839052608060608201819052600090612b3f9083018461355f565b6000602082840312156146c357600080fd5b81516116cf8161359e565b60018060a01b038416815282602082015260606040820152600061242f606083018461355f565b60006020828403121561470757600080fd5b81516116cf8161398c565b60006116cf8383613e1d56fe4142434445464748494a4b4c4d4e4f505152535455565758595a6162636465666768696a6b6c6d6e6f707172737475767778797a303132333435363738392b2fddf252ad1be2c89b69c2b068fc378daa952ba7f163c4a11628f55a4df523b3ef73b5fbfbf0177b0de2ffe9fd0ae9887dd73d0d865db7ab5ff3c4a6b9bb8db1e3a2646970667358221220442048bd05769c4a77ba0746fc3c6e77638683c34740fe3245f42c181cb3df4e64736f6c634300080b0033",
  "linkReferences": {},
  "deployedLinkReferences": {}
}